{
  "_format": "hh-sol-artifact-1",
  "contractName": "LandRegistry",
  "sourceName": "contracts/LandRegistry.sol",
  "abi": [
    {
      "inputs": [
        {
          "internalType": "string",
          "name": "_adminPublicKey",
          "type": "string"
        }
      ],
      "stateMutability": "nonpayable",
      "type": "constructor"
    },
    {
      "inputs": [
        {
          "internalType": "address",
          "name": "owner",
          "type": "address"
        }
      ],
      "name": "OwnableInvalidOwner",
      "type": "error"
    },
    {
      "inputs": [
        {
          "internalType": "address",
          "name": "account",
          "type": "address"
        }
      ],
      "name": "OwnableUnauthorizedAccount",
      "type": "error"
    },
    {
      "inputs": [],
      "name": "ReentrancyGuardReentrantCall",
      "type": "error"
    },
    {
      "anonymous": false,
      "inputs": [
        {
          "indexed": true,
          "internalType": "string",
          "name": "newAdminPublicKey",
          "type": "string"
        }
      ],
      "name": "AdminPublicKeyUpdated",
      "type": "event"
    },
    {
      "anonymous": false,
      "inputs": [
        {
          "indexed": true,
          "internalType": "uint256",
          "name": "id",
          "type": "uint256"
        },
        {
          "indexed": false,
          "internalType": "string",
          "name": "plotNumber",
          "type": "string"
        },
        {
          "indexed": true,
          "internalType": "address",
          "name": "owner",
          "type": "address"
        }
      ],
      "name": "LandRegistered",
      "type": "event"
    },
    {
      "anonymous": false,
      "inputs": [
        {
          "indexed": true,
          "internalType": "uint256",
          "name": "id",
          "type": "uint256"
        },
        {
          "indexed": false,
          "internalType": "string",
          "name": "plotNumber",
          "type": "string"
        },
        {
          "indexed": false,
          "internalType": "string",
          "name": "reason",
          "type": "string"
        },
        {
          "indexed": true,
          "internalType": "address",
          "name": "official",
          "type": "address"
        }
      ],
      "name": "LandRejected",
      "type": "event"
    },
    {
      "anonymous": false,
      "inputs": [
        {
          "indexed": true,
          "internalType": "uint256",
          "name": "id",
          "type": "uint256"
        },
        {
          "indexed": false,
          "internalType": "string",
          "name": "plotNumber",
          "type": "string"
        },
        {
          "indexed": true,
          "internalType": "address",
          "name": "official",
          "type": "address"
        }
      ],
      "name": "LandVerified",
      "type": "event"
    },
    {
      "anonymous": false,
      "inputs": [
        {
          "indexed": true,
          "internalType": "address",
          "name": "official",
          "type": "address"
        }
      ],
      "name": "OfficialAdded",
      "type": "event"
    },
    {
      "anonymous": false,
      "inputs": [
        {
          "indexed": true,
          "internalType": "address",
          "name": "official",
          "type": "address"
        }
      ],
      "name": "OfficialRemoved",
      "type": "event"
    },
    {
      "anonymous": false,
      "inputs": [
        {
          "indexed": true,
          "internalType": "address",
          "name": "previousOwner",
          "type": "address"
        },
        {
          "indexed": true,
          "internalType": "address",
          "name": "newOwner",
          "type": "address"
        }
      ],
      "name": "OwnershipTransferred",
      "type": "event"
    },
    {
      "anonymous": false,
      "inputs": [
        {
          "indexed": true,
          "internalType": "uint256",
          "name": "id",
          "type": "uint256"
        },
        {
          "indexed": false,
          "internalType": "bytes32",
          "name": "proofHash",
          "type": "bytes32"
        },
        {
          "indexed": true,
          "internalType": "address",
          "name": "owner",
          "type": "address"
        }
      ],
      "name": "ProofGenerated",
      "type": "event"
    },
    {
      "anonymous": false,
      "inputs": [
        {
          "indexed": true,
          "internalType": "uint256",
          "name": "id",
          "type": "uint256"
        },
        {
          "indexed": false,
          "internalType": "bytes32",
          "name": "proofHash",
          "type": "bytes32"
        },
        {
          "indexed": true,
          "internalType": "address",
          "name": "verifier",
          "type": "address"
        }
      ],
      "name": "ProofUsed",
      "type": "event"
    },
    {
      "inputs": [
        {
          "internalType": "address",
          "name": "_official",
          "type": "address"
        }
      ],
      "name": "addOfficial",
      "outputs": [],
      "stateMutability": "nonpayable",
      "type": "function"
    },
    {
      "inputs": [],
      "name": "adminPublicKey",
      "outputs": [
        {
          "internalType": "string",
          "name": "",
          "type": "string"
        }
      ],
      "stateMutability": "view",
      "type": "function"
    },
    {
      "inputs": [
        {
          "internalType": "uint256",
          "name": "_landId",
          "type": "uint256"
        }
      ],
      "name": "generateProof",
      "outputs": [
        {
          "internalType": "bytes32",
          "name": "",
          "type": "bytes32"
        }
      ],
      "stateMutability": "nonpayable",
      "type": "function"
    },
    {
      "inputs": [],
      "name": "getAllLands",
      "outputs": [
        {
          "components": [
            {
              "internalType": "uint256",
              "name": "id",
              "type": "uint256"
            },
            {
              "internalType": "string",
              "name": "ownerFullName",
              "type": "string"
            },
            {
              "internalType": "string",
              "name": "plotNumber",
              "type": "string"
            },
            {
              "internalType": "uint256",
              "name": "landSize",
              "type": "uint256"
            },
            {
              "internalType": "string",
              "name": "gpsCoordinates",
              "type": "string"
            },
            {
              "internalType": "string",
              "name": "encryptedTitleDeedHash",
              "type": "string"
            },
            {
              "internalType": "enum LandRegistry.VerificationStatus",
              "name": "status",
              "type": "uint8"
            },
            {
              "internalType": "string",
              "name": "rejectionReason",
              "type": "string"
            },
            {
              "internalType": "address",
              "name": "owner",
              "type": "address"
            },
            {
              "internalType": "uint256",
              "name": "timestamp",
              "type": "uint256"
            }
          ],
          "internalType": "struct LandRegistry.LandRecord[]",
          "name": "",
          "type": "tuple[]"
        }
      ],
      "stateMutability": "view",
      "type": "function"
    },
    {
      "inputs": [
        {
          "internalType": "uint256",
          "name": "_landId",
          "type": "uint256"
        }
      ],
      "name": "getLandById",
      "outputs": [
        {
          "components": [
            {
              "internalType": "uint256",
              "name": "id",
              "type": "uint256"
            },
            {
              "internalType": "string",
              "name": "ownerFullName",
              "type": "string"
            },
            {
              "internalType": "string",
              "name": "plotNumber",
              "type": "string"
            },
            {
              "internalType": "uint256",
              "name": "landSize",
              "type": "uint256"
            },
            {
              "internalType": "string",
              "name": "gpsCoordinates",
              "type": "string"
            },
            {
              "internalType": "string",
              "name": "encryptedTitleDeedHash",
              "type": "string"
            },
            {
              "internalType": "enum LandRegistry.VerificationStatus",
              "name": "status",
              "type": "uint8"
            },
            {
              "internalType": "string",
              "name": "rejectionReason",
              "type": "string"
            },
            {
              "internalType": "address",
              "name": "owner",
              "type": "address"
            },
            {
              "internalType": "uint256",
              "name": "timestamp",
              "type": "uint256"
            }
          ],
          "internalType": "struct LandRegistry.LandRecord",
          "name": "",
          "type": "tuple"
        }
      ],
      "stateMutability": "view",
      "type": "function"
    },
    {
      "inputs": [
        {
          "internalType": "address",
          "name": "_owner",
          "type": "address"
        }
      ],
      "name": "getLandsByOwner",
      "outputs": [
        {
          "components": [
            {
              "internalType": "uint256",
              "name": "id",
              "type": "uint256"
            },
            {
              "internalType": "string",
              "name": "ownerFullName",
              "type": "string"
            },
            {
              "internalType": "string",
              "name": "plotNumber",
              "type": "string"
            },
            {
              "internalType": "uint256",
              "name": "landSize",
              "type": "uint256"
            },
            {
              "internalType": "string",
              "name": "gpsCoordinates",
              "type": "string"
            },
            {
              "internalType": "string",
              "name": "encryptedTitleDeedHash",
              "type": "string"
            },
            {
              "internalType": "enum LandRegistry.VerificationStatus",
              "name": "status",
              "type": "uint8"
            },
            {
              "internalType": "string",
              "name": "rejectionReason",
              "type": "string"
            },
            {
              "internalType": "address",
              "name": "owner",
              "type": "address"
            },
            {
              "internalType": "uint256",
              "name": "timestamp",
              "type": "uint256"
            }
          ],
          "internalType": "struct LandRegistry.LandRecord[]",
          "name": "",
          "type": "tuple[]"
        }
      ],
      "stateMutability": "view",
      "type": "function"
    },
    {
      "inputs": [
        {
          "internalType": "address",
          "name": "",
          "type": "address"
        }
      ],
      "name": "governmentOfficials",
      "outputs": [
        {
          "internalType": "bool",
          "name": "",
          "type": "bool"
        }
      ],
      "stateMutability": "view",
      "type": "function"
    },
    {
      "inputs": [
        {
          "internalType": "address",
          "name": "",
          "type": "address"
        },
        {
          "internalType": "uint256",
          "name": "",
          "type": "uint256"
        }
      ],
      "name": "landIdsByOwner",
      "outputs": [
        {
          "internalType": "uint256",
          "name": "",
          "type": "uint256"
        }
      ],
      "stateMutability": "view",
      "type": "function"
    },
    {
      "inputs": [
        {
          "internalType": "uint256",
          "name": "",
          "type": "uint256"
        }
      ],
      "name": "lands",
      "outputs": [
        {
          "internalType": "uint256",
          "name": "id",
          "type": "uint256"
        },
        {
          "internalType": "string",
          "name": "ownerFullName",
          "type": "string"
        },
        {
          "internalType": "string",
          "name": "plotNumber",
          "type": "string"
        },
        {
          "internalType": "uint256",
          "name": "landSize",
          "type": "uint256"
        },
        {
          "internalType": "string",
          "name": "gpsCoordinates",
          "type": "string"
        },
        {
          "internalType": "string",
          "name": "encryptedTitleDeedHash",
          "type": "string"
        },
        {
          "internalType": "enum LandRegistry.VerificationStatus",
          "name": "status",
          "type": "uint8"
        },
        {
          "internalType": "string",
          "name": "rejectionReason",
          "type": "string"
        },
        {
          "internalType": "address",
          "name": "owner",
          "type": "address"
        },
        {
          "internalType": "uint256",
          "name": "timestamp",
          "type": "uint256"
        }
      ],
      "stateMutability": "view",
      "type": "function"
    },
    {
      "inputs": [],
      "name": "owner",
      "outputs": [
        {
          "internalType": "address",
          "name": "",
          "type": "address"
        }
      ],
      "stateMutability": "view",
      "type": "function"
    },
    {
      "inputs": [
        {
          "internalType": "string",
          "name": "_plotNumber",
          "type": "string"
        },
        {
          "internalType": "uint256",
          "name": "_landSize",
          "type": "uint256"
        },
        {
          "internalType": "string",
          "name": "_gpsCoordinates",
          "type": "string"
        },
        {
          "internalType": "string",
          "name": "_encryptedTitleDeedHash",
          "type": "string"
        },
        {
          "internalType": "string",
          "name": "_ownerFullName",
          "type": "string"
        }
      ],
      "name": "registerLand",
      "outputs": [],
      "stateMutability": "nonpayable",
      "type": "function"
    },
    {
      "inputs": [
        {
          "internalType": "uint256",
          "name": "_landId",
          "type": "uint256"
        },
        {
          "internalType": "string",
          "name": "_reason",
          "type": "string"
        }
      ],
      "name": "rejectLand",
      "outputs": [],
      "stateMutability": "nonpayable",
      "type": "function"
    },
    {
      "inputs": [
        {
          "internalType": "address",
          "name": "_official",
          "type": "address"
        }
      ],
      "name": "removeOfficial",
      "outputs": [],
      "stateMutability": "nonpayable",
      "type": "function"
    },
    {
      "inputs": [],
      "name": "renounceOwnership",
      "outputs": [],
      "stateMutability": "nonpayable",
      "type": "function"
    },
    {
      "inputs": [
        {
          "internalType": "string",
          "name": "_adminPublicKey",
          "type": "string"
        }
      ],
      "name": "setAdminPublicKey",
      "outputs": [],
      "stateMutability": "nonpayable",
      "type": "function"
    },
    {
      "inputs": [
        {
          "internalType": "address",
          "name": "newOwner",
          "type": "address"
        }
      ],
      "name": "transferOwnership",
      "outputs": [],
      "stateMutability": "nonpayable",
      "type": "function"
    },
    {
      "inputs": [
        {
          "internalType": "uint256",
          "name": "_landId",
          "type": "uint256"
        }
      ],
      "name": "verifyLand",
      "outputs": [],
      "stateMutability": "nonpayable",
      "type": "function"
    },
    {
      "inputs": [
        {
          "internalType": "bytes32",
          "name": "_proofHash",
          "type": "bytes32"
        }
      ],
      "name": "verifyProof",
      "outputs": [
        {
          "components": [
            {
              "internalType": "uint256",
              "name": "id",
              "type": "uint256"
            },
            {
              "internalType": "string",
              "name": "ownerFullName",
              "type": "string"
            },
            {
              "internalType": "string",
              "name": "plotNumber",
              "type": "string"
            },
            {
              "internalType": "uint256",
              "name": "landSize",
              "type": "uint256"
            },
            {
              "internalType": "string",
              "name": "gpsCoordinates",
              "type": "string"
            },
            {
              "internalType": "string",
              "name": "encryptedTitleDeedHash",
              "type": "string"
            },
            {
              "internalType": "enum LandRegistry.VerificationStatus",
              "name": "status",
              "type": "uint8"
            },
            {
              "internalType": "string",
              "name": "rejectionReason",
              "type": "string"
            },
            {
              "internalType": "address",
              "name": "owner",
              "type": "address"
            },
            {
              "internalType": "uint256",
              "name": "timestamp",
              "type": "uint256"
            }
          ],
          "internalType": "struct LandRegistry.LandRecord",
          "name": "",
          "type": "tuple"
        }
      ],
      "stateMutability": "nonpayable",
      "type": "function"
    }
  ],
  "bytecode": "0x608060405234801561001057600080fd5b506040516145743803806145748339818101604052810190610032919061045b565b33600073ffffffffffffffffffffffffffffffffffffffff168173ffffffffffffffffffffffffffffffffffffffff16036100a55760006040517f1e4fbdf700000000000000000000000000000000000000000000000000000000815260040161009c91906104e5565b60405180910390fd5b6100b48161021560201b60201c565b506001808190555080600890816100cb9190610721565b506040516100d8906102d9565b604051809103906000f0801580156100f4573d6000803e3d6000fd5b50600260006101000a81548173ffffffffffffffffffffffffffffffffffffffff021916908373ffffffffffffffffffffffffffffffffffffffff160217905550600260009054906101000a900473ffffffffffffffffffffffffffffffffffffffff1673ffffffffffffffffffffffffffffffffffffffff1663d09de08a6040518163ffffffff1660e01b8152600401600060405180830381600087803b15801561019f57600080fd5b505af11580156101b3573d6000803e3d6000fd5b505050506001600660003373ffffffffffffffffffffffffffffffffffffffff1673ffffffffffffffffffffffffffffffffffffffff16815260200190815260200160002060006101000a81548160ff021916908315150217905550506107f3565b60008060009054906101000a900473ffffffffffffffffffffffffffffffffffffffff169050816000806101000a81548173ffffffffffffffffffffffffffffffffffffffff021916908373ffffffffffffffffffffffffffffffffffffffff1602179055508173ffffffffffffffffffffffffffffffffffffffff168173ffffffffffffffffffffffffffffffffffffffff167f8be0079c531659141344cd1fd0a4f28419497f9722a3daafe3b4186f6b6457e060405160405180910390a35050565b61029f806142d583390190565b6000604051905090565b600080fd5b600080fd5b600080fd5b600080fd5b6000601f19601f8301169050919050565b7f4e487b7100000000000000000000000000000000000000000000000000000000600052604160045260246000fd5b61034d82610304565b810181811067ffffffffffffffff8211171561036c5761036b610315565b5b80604052505050565b600061037f6102e6565b905061038b8282610344565b919050565b600067ffffffffffffffff8211156103ab576103aa610315565b5b6103b482610304565b9050602081019050919050565b60005b838110156103df5780820151818401526020810190506103c4565b60008484015250505050565b60006103fe6103f984610390565b610375565b90508281526020810184848401111561041a576104196102ff565b5b6104258482856103c1565b509392505050565b600082601f830112610442576104416102fa565b5b81516104528482602086016103eb565b91505092915050565b600060208284031215610471576104706102f0565b5b600082015167ffffffffffffffff81111561048f5761048e6102f5565b5b61049b8482850161042d565b91505092915050565b600073ffffffffffffffffffffffffffffffffffffffff82169050919050565b60006104cf826104a4565b9050919050565b6104df816104c4565b82525050565b60006020820190506104fa60008301846104d6565b92915050565b600081519050919050565b7f4e487b7100000000000000000000000000000000000000000000000000000000600052602260045260246000fd5b6000600282049050600182168061055257607f821691505b6020821081036105655761056461050b565b5b50919050565b60008190508160005260206000209050919050565b60006020601f8301049050919050565b600082821b905092915050565b6000600883026105cd7fffffffffffffffffffffffffffffffffffffffffffffffffffffffffffffffff82610590565b6105d78683610590565b95508019841693508086168417925050509392505050565b6000819050919050565b6000819050919050565b600061061e610619610614846105ef565b6105f9565b6105ef565b9050919050565b6000819050919050565b61063883610603565b61064c61064482610625565b84845461059d565b825550505050565b600090565b610661610654565b61066c81848461062f565b505050565b5b8181101561069057610685600082610659565b600181019050610672565b5050565b601f8211156106d5576106a68161056b565b6106af84610580565b810160208510156106be578190505b6106d26106ca85610580565b830182610671565b50505b505050565b600082821c905092915050565b60006106f8600019846008026106da565b1980831691505092915050565b600061071183836106e7565b9150826002028217905092915050565b61072a82610500565b67ffffffffffffffff81111561074357610742610315565b5b61074d825461053a565b610758828285610694565b600060209050601f83116001811461078b5760008415610779578287015190505b6107838582610705565b8655506107eb565b601f1984166107998661056b565b60005b828110156107c15784890151825560018201915060208501945060208101905061079c565b868310156107de57848901516107da601f8916826106e7565b8355505b6001600288020188555050505b505050505050565b613ad3806108026000396000f3fe608060405234801561001057600080fd5b50600436106101165760003560e01c8063ac840db0116100a2578063e261f1e511610071578063e261f1e5146102df578063e5c3bf5714610318578063f2fde38b14610348578063f9c43bdf14610364578063fa1f52721461038057610116565b8063ac840db014610257578063b142b4ec14610273578063b7b6e543146102a3578063be943a59146102c157610116565b806359122393116100e957806359122393146101b3578063715018a6146101cf578063727c04c8146101d95780638da5cb5b14610209578063aa6102be1461022757610116565b80632e7d68401461011b578063455b9d2314610137578063471a4c34146101675780634fea495414610197575b600080fd5b61013560048036038101906101309190612940565b61039c565b005b610151600480360381019061014c9190612a89565b61079d565b60405161015e9190612d82565b60405180910390f35b610181600480360381019061017c9190612da4565b610c8e565b60405161018e9190612dea565b60405180910390f35b6101b160048036038101906101ac9190612a89565b610e5f565b005b6101cd60048036038101906101c89190612e05565b610f05565b005b6101d76110e8565b005b6101f360048036038101906101ee9190612da4565b6110fc565b6040516102009190612f57565b60405180910390f35b6102116114b3565b60405161021e9190612f88565b60405180910390f35b610241600480360381019061023c9190612fa3565b6114dc565b60405161024e9190612ff2565b60405180910390f35b610271600480360381019061026c9190612a89565b61150d565b005b61028d60048036038101906102889190613039565b6115b3565b60405161029a9190612f57565b60405180910390f35b6102ab611a32565b6040516102b89190612d82565b60405180910390f35b6102c9611f1d565b6040516102d691906130b0565b60405180910390f35b6102f960048036038101906102f49190612da4565b611fab565b60405161030f9a999897969594939291906130e1565b60405180910390f35b610332600480360381019061032d9190612a89565b6122d4565b60405161033f91906131bb565b60405180910390f35b610362600480360381019061035d9190612a89565b6122f4565b005b61037e60048036038101906103799190612da4565b61237a565b005b61039a600480360381019061039591906131d6565b612536565b005b6103a4612593565b60006005866040516103b6919061325b565b90815260200160405180910390205414610405576040517f08c379a00000000000000000000000000000000000000000000000000000000081526004016103fc906132be565b60405180910390fd5b600260009054906101000a900473ffffffffffffffffffffffffffffffffffffffff1673ffffffffffffffffffffffffffffffffffffffff1663d09de08a6040518163ffffffff1660e01b8152600401600060405180830381600087803b15801561046f57600080fd5b505af1158015610483573d6000803e3d6000fd5b505050506000600260009054906101000a900473ffffffffffffffffffffffffffffffffffffffff1673ffffffffffffffffffffffffffffffffffffffff16639fa6a6e36040518163ffffffff1660e01b8152600401602060405180830381865afa1580156104f6573d6000803e3d6000fd5b505050506040513d601f19601f8201168201806040525081019061051a91906132f3565b9050604051806101400160405280828152602001838152602001878152602001868152602001858152602001848152602001600060028111156105605761055f612b70565b5b81526020016040518060200160405280600081525081526020013373ffffffffffffffffffffffffffffffffffffffff16815260200142815250600360008381526020019081526020016000206000820151816000015560208201518160010190816105cc919061352c565b5060408201518160020190816105e2919061352c565b50606082015181600301556080820151816004019081610602919061352c565b5060a0820151816005019081610618919061352c565b5060c08201518160060160006101000a81548160ff0219169083600281111561064457610643612b70565b5b021790555060e082015181600701908161065e919061352c565b506101008201518160080160006101000a81548173ffffffffffffffffffffffffffffffffffffffff021916908373ffffffffffffffffffffffffffffffffffffffff1602179055506101208201518160090155905050806005876040516106c6919061325b565b908152602001604051809103902081905550600460003373ffffffffffffffffffffffffffffffffffffffff1673ffffffffffffffffffffffffffffffffffffffff1681526020019081526020016000208190806001815401808255809150506001900390600052602060002001600090919091909150553373ffffffffffffffffffffffffffffffffffffffff16817f0a14f5ae2f9ee538270143056894f8128fb116c653fb2fde847dcebdd181622e8860405161078591906130b0565b60405180910390a3506107966125d9565b5050505050565b60606000600460008473ffffffffffffffffffffffffffffffffffffffff1673ffffffffffffffffffffffffffffffffffffffff16815260200190815260200160002080548060200260200160405190810160405280929190818152602001828054801561082a57602002820191906000526020600020905b815481526020019060010190808311610816575b505050505090506000815167ffffffffffffffff81111561084e5761084d6127df565b5b60405190808252806020026020018201604052801561088757816020015b610874612735565b81526020019060019003908161086c5790505b50905060005b8251811015610c8357600360008483815181106108ad576108ac6135fe565b5b6020026020010151815260200190815260200160002060405180610140016040529081600082015481526020016001820180546108e99061334f565b80601f01602080910402602001604051908101604052809291908181526020018280546109159061334f565b80156109625780601f1061093757610100808354040283529160200191610962565b820191906000526020600020905b81548152906001019060200180831161094557829003601f168201915b5050505050815260200160028201805461097b9061334f565b80601f01602080910402602001604051908101604052809291908181526020018280546109a79061334f565b80156109f45780601f106109c9576101008083540402835291602001916109f4565b820191906000526020600020905b8154815290600101906020018083116109d757829003601f168201915b5050505050815260200160038201548152602001600482018054610a179061334f565b80601f0160208091040260200160405190810160405280929190818152602001828054610a439061334f565b8015610a905780601f10610a6557610100808354040283529160200191610a90565b820191906000526020600020905b815481529060010190602001808311610a7357829003601f168201915b50505050508152602001600582018054610aa99061334f565b80601f0160208091040260200160405190810160405280929190818152602001828054610ad59061334f565b8015610b225780601f10610af757610100808354040283529160200191610b22565b820191906000526020600020905b815481529060010190602001808311610b0557829003601f168201915b505050505081526020016006820160009054906101000a900460ff166002811115610b5057610b4f612b70565b5b6002811115610b6257610b61612b70565b5b8152602001600782018054610b769061334f565b80601f0160208091040260200160405190810160405280929190818152602001828054610ba29061334f565b8015610bef5780601f10610bc457610100808354040283529160200191610bef565b820191906000526020600020905b815481529060010190602001808311610bd257829003601f168201915b505050505081526020016008820160009054906101000a900473ffffffffffffffffffffffffffffffffffffffff1673ffffffffffffffffffffffffffffffffffffffff1673ffffffffffffffffffffffffffffffffffffffff168152602001600982015481525050828281518110610c6b57610c6a6135fe565b5b6020026020010181905250808060010191505061088d565b508092505050919050565b6000813373ffffffffffffffffffffffffffffffffffffffff166003600083815260200190815260200160002060080160009054906101000a900473ffffffffffffffffffffffffffffffffffffffff1673ffffffffffffffffffffffffffffffffffffffff1614610d35576040517f08c379a0000000000000000000000000000000000000000000000000000000008152600401610d2c90613679565b60405180910390fd5b60016002811115610d4957610d48612b70565b5b6003600085815260200190815260200160002060060160009054906101000a900460ff166002811115610d7f57610d7e612b70565b5b14610dbf576040517f08c379a0000000000000000000000000000000000000000000000000000000008152600401610db6906136e5565b60405180910390fd5b6000428433604051602001610dd69392919061376e565b6040516020818303038152906040528051906020012090508360076000838152602001908152602001600020819055503373ffffffffffffffffffffffffffffffffffffffff16847fd288377462b9636abf3f2c3900952588a057f865e4537484b0f33e35fc4f65ce83604051610e4d9190612dea565b60405180910390a38092505050919050565b610e676125e2565b6000600660008373ffffffffffffffffffffffffffffffffffffffff1673ffffffffffffffffffffffffffffffffffffffff16815260200190815260200160002060006101000a81548160ff0219169083151502179055508073ffffffffffffffffffffffffffffffffffffffff167f6870c940cab428231ba488bb666ecfb340724efd013cd7d4eaa6b26aa97f280860405160405180910390a250565b600660003373ffffffffffffffffffffffffffffffffffffffff1673ffffffffffffffffffffffffffffffffffffffff16815260200190815260200160002060009054906101000a900460ff16610f91576040517f08c379a0000000000000000000000000000000000000000000000000000000008152600401610f889061381d565b60405180910390fd5b60006002811115610fa557610fa4612b70565b5b6003600084815260200190815260200160002060060160009054906101000a900460ff166002811115610fdb57610fda612b70565b5b1461101b576040517f08c379a000000000000000000000000000000000000000000000000000000000815260040161101290613889565b60405180910390fd5b60026003600084815260200190815260200160002060060160006101000a81548160ff0219169083600281111561105557611054612b70565b5b02179055508060036000848152602001908152602001600020600701908161107d919061352c565b503373ffffffffffffffffffffffffffffffffffffffff16827f894d8599a674bdd0d3eca5bb4f4627461f48a8b2c6ffd956e23faee58595bda160036000868152602001908152602001600020600201846040516110dc92919061392d565b60405180910390a35050565b6110f06125e2565b6110fa6000612669565b565b611104612735565b60036000838152602001908152602001600020604051806101400160405290816000820154815260200160018201805461113d9061334f565b80601f01602080910402602001604051908101604052809291908181526020018280546111699061334f565b80156111b65780601f1061118b576101008083540402835291602001916111b6565b820191906000526020600020905b81548152906001019060200180831161119957829003601f168201915b505050505081526020016002820180546111cf9061334f565b80601f01602080910402602001604051908101604052809291908181526020018280546111fb9061334f565b80156112485780601f1061121d57610100808354040283529160200191611248565b820191906000526020600020905b81548152906001019060200180831161122b57829003601f168201915b505050505081526020016003820154815260200160048201805461126b9061334f565b80601f01602080910402602001604051908101604052809291908181526020018280546112979061334f565b80156112e45780601f106112b9576101008083540402835291602001916112e4565b820191906000526020600020905b8154815290600101906020018083116112c757829003601f168201915b505050505081526020016005820180546112fd9061334f565b80601f01602080910402602001604051908101604052809291908181526020018280546113299061334f565b80156113765780601f1061134b57610100808354040283529160200191611376565b820191906000526020600020905b81548152906001019060200180831161135957829003601f168201915b505050505081526020016006820160009054906101000a900460ff1660028111156113a4576113a3612b70565b5b60028111156113b6576113b5612b70565b5b81526020016007820180546113ca9061334f565b80601f01602080910402602001604051908101604052809291908181526020018280546113f69061334f565b80156114435780601f1061141857610100808354040283529160200191611443565b820191906000526020600020905b81548152906001019060200180831161142657829003601f168201915b505050505081526020016008820160009054906101000a900473ffffffffffffffffffffffffffffffffffffffff1673ffffffffffffffffffffffffffffffffffffffff1673ffffffffffffffffffffffffffffffffffffffff1681526020016009820154815250509050919050565b60008060009054906101000a900473ffffffffffffffffffffffffffffffffffffffff16905090565b600460205281600052604060002081815481106114f857600080fd5b90600052602060002001600091509150505481565b6115156125e2565b6001600660008373ffffffffffffffffffffffffffffffffffffffff1673ffffffffffffffffffffffffffffffffffffffff16815260200190815260200160002060006101000a81548160ff0219169083151502179055508073ffffffffffffffffffffffffffffffffffffffff167fcd902338c077954bb88183435a933f4d31a1251a6bc80aa0b0e6027111d6e8e860405160405180910390a250565b6115bb612735565b60006007600084815260200190815260200160002054905060008103611616576040517f08c379a000000000000000000000000000000000000000000000000000000000815260040161160d906139b0565b60405180910390fd5b60006003600083815260200190815260200160002060405180610140016040529081600082015481526020016001820180546116519061334f565b80601f016020809104026020016040519081016040528092919081815260200182805461167d9061334f565b80156116ca5780601f1061169f576101008083540402835291602001916116ca565b820191906000526020600020905b8154815290600101906020018083116116ad57829003601f168201915b505050505081526020016002820180546116e39061334f565b80601f016020809104026020016040519081016040528092919081815260200182805461170f9061334f565b801561175c5780601f106117315761010080835404028352916020019161175c565b820191906000526020600020905b81548152906001019060200180831161173f57829003601f168201915b505050505081526020016003820154815260200160048201805461177f9061334f565b80601f01602080910402602001604051908101604052809291908181526020018280546117ab9061334f565b80156117f85780601f106117cd576101008083540402835291602001916117f8565b820191906000526020600020905b8154815290600101906020018083116117db57829003601f168201915b505050505081526020016005820180546118119061334f565b80601f016020809104026020016040519081016040528092919081815260200182805461183d9061334f565b801561188a5780601f1061185f5761010080835404028352916020019161188a565b820191906000526020600020905b81548152906001019060200180831161186d57829003601f168201915b505050505081526020016006820160009054906101000a900460ff1660028111156118b8576118b7612b70565b5b60028111156118ca576118c9612b70565b5b81526020016007820180546118de9061334f565b80601f016020809104026020016040519081016040528092919081815260200182805461190a9061334f565b80156119575780601f1061192c57610100808354040283529160200191611957565b820191906000526020600020905b81548152906001019060200180831161193a57829003601f168201915b505050505081526020016008820160009054906101000a900473ffffffffffffffffffffffffffffffffffffffff1673ffffffffffffffffffffffffffffffffffffffff1673ffffffffffffffffffffffffffffffffffffffff168152602001600982015481525050905060076000858152602001908152602001600020600090553373ffffffffffffffffffffffffffffffffffffffff16827ff59da9a73a824c39ecd3e156ebc161bcbf5fedae0cdf9bbc29ce3c60821d604c86604051611a209190612dea565b60405180910390a38092505050919050565b60606000600260009054906101000a900473ffffffffffffffffffffffffffffffffffffffff1673ffffffffffffffffffffffffffffffffffffffff16639fa6a6e36040518163ffffffff1660e01b8152600401602060405180830381865afa158015611aa3573d6000803e3d6000fd5b505050506040513d601f19601f82011682018060405250810190611ac791906132f3565b905060008167ffffffffffffffff811115611ae557611ae46127df565b5b604051908082528060200260200182016040528015611b1e57816020015b611b0b612735565b815260200190600190039081611b035790505b5090506000600190505b828111611f1457600360008281526020019081526020016000206040518061014001604052908160008201548152602001600182018054611b689061334f565b80601f0160208091040260200160405190810160405280929190818152602001828054611b949061334f565b8015611be15780601f10611bb657610100808354040283529160200191611be1565b820191906000526020600020905b815481529060010190602001808311611bc457829003601f168201915b50505050508152602001600282018054611bfa9061334f565b80601f0160208091040260200160405190810160405280929190818152602001828054611c269061334f565b8015611c735780601f10611c4857610100808354040283529160200191611c73565b820191906000526020600020905b815481529060010190602001808311611c5657829003601f168201915b5050505050815260200160038201548152602001600482018054611c969061334f565b80601f0160208091040260200160405190810160405280929190818152602001828054611cc29061334f565b8015611d0f5780601f10611ce457610100808354040283529160200191611d0f565b820191906000526020600020905b815481529060010190602001808311611cf257829003601f168201915b50505050508152602001600582018054611d289061334f565b80601f0160208091040260200160405190810160405280929190818152602001828054611d549061334f565b8015611da15780601f10611d7657610100808354040283529160200191611da1565b820191906000526020600020905b815481529060010190602001808311611d8457829003601f168201915b505050505081526020016006820160009054906101000a900460ff166002811115611dcf57611dce612b70565b5b6002811115611de157611de0612b70565b5b8152602001600782018054611df59061334f565b80601f0160208091040260200160405190810160405280929190818152602001828054611e219061334f565b8015611e6e5780601f10611e4357610100808354040283529160200191611e6e565b820191906000526020600020905b815481529060010190602001808311611e5157829003601f168201915b505050505081526020016008820160009054906101000a900473ffffffffffffffffffffffffffffffffffffffff1673ffffffffffffffffffffffffffffffffffffffff1673ffffffffffffffffffffffffffffffffffffffff16815260200160098201548152505082600183611ee591906139ff565b81518110611ef657611ef56135fe565b5b60200260200101819052508080611f0c90613a33565b915050611b28565b50809250505090565b60088054611f2a9061334f565b80601f0160208091040260200160405190810160405280929190818152602001828054611f569061334f565b8015611fa35780601f10611f7857610100808354040283529160200191611fa3565b820191906000526020600020905b815481529060010190602001808311611f8657829003601f168201915b505050505081565b6003602052806000526040600020600091509050806000015490806001018054611fd49061334f565b80601f01602080910402602001604051908101604052809291908181526020018280546120009061334f565b801561204d5780601f106120225761010080835404028352916020019161204d565b820191906000526020600020905b81548152906001019060200180831161203057829003601f168201915b5050505050908060020180546120629061334f565b80601f016020809104026020016040519081016040528092919081815260200182805461208e9061334f565b80156120db5780601f106120b0576101008083540402835291602001916120db565b820191906000526020600020905b8154815290600101906020018083116120be57829003601f168201915b5050505050908060030154908060040180546120f69061334f565b80601f01602080910402602001604051908101604052809291908181526020018280546121229061334f565b801561216f5780601f106121445761010080835404028352916020019161216f565b820191906000526020600020905b81548152906001019060200180831161215257829003601f168201915b5050505050908060050180546121849061334f565b80601f01602080910402602001604051908101604052809291908181526020018280546121b09061334f565b80156121fd5780601f106121d2576101008083540402835291602001916121fd565b820191906000526020600020905b8154815290600101906020018083116121e057829003601f168201915b5050505050908060060160009054906101000a900460ff16908060070180546122259061334f565b80601f01602080910402602001604051908101604052809291908181526020018280546122519061334f565b801561229e5780601f106122735761010080835404028352916020019161229e565b820191906000526020600020905b81548152906001019060200180831161228157829003601f168201915b5050505050908060080160009054906101000a900473ffffffffffffffffffffffffffffffffffffffff1690806009015490508a565b60066020528060005260406000206000915054906101000a900460ff1681565b6122fc6125e2565b600073ffffffffffffffffffffffffffffffffffffffff168173ffffffffffffffffffffffffffffffffffffffff160361236e5760006040517f1e4fbdf70000000000000000000000000000000000000000000000000000000081526004016123659190612f88565b60405180910390fd5b61237781612669565b50565b600660003373ffffffffffffffffffffffffffffffffffffffff1673ffffffffffffffffffffffffffffffffffffffff16815260200190815260200160002060009054906101000a900460ff16612406576040517f08c379a00000000000000000000000000000000000000000000000000000000081526004016123fd9061381d565b60405180910390fd5b6000600281111561241a57612419612b70565b5b6003600083815260200190815260200160002060060160009054906101000a900460ff1660028111156124505761244f612b70565b5b14612490576040517f08c379a000000000000000000000000000000000000000000000000000000000815260040161248790613889565b60405180910390fd5b60016003600083815260200190815260200160002060060160006101000a81548160ff021916908360028111156124ca576124c9612b70565b5b02179055503373ffffffffffffffffffffffffffffffffffffffff16817f0c0a2ea1d1b01a28414c2003c2e13766007037e5965f76d1624f32b8c8db70286003600085815260200190815260200160002060020160405161252b9190613a7b565b60405180910390a350565b61253e6125e2565b806008908161254d919061352c565b508060405161255c919061325b565b60405180910390207f20b00c400b45ef29a0319a48ba524832fd9a00108585f95562f1b7e8cc1a3bed60405160405180910390a250565b6002600154036125cf576040517f3ee5aeb500000000000000000000000000000000000000000000000000000000815260040160405180910390fd5b6002600181905550565b60018081905550565b6125ea61272d565b73ffffffffffffffffffffffffffffffffffffffff166126086114b3565b73ffffffffffffffffffffffffffffffffffffffff16146126675761262b61272d565b6040517f118cdaa700000000000000000000000000000000000000000000000000000000815260040161265e9190612f88565b60405180910390fd5b565b60008060009054906101000a900473ffffffffffffffffffffffffffffffffffffffff169050816000806101000a81548173ffffffffffffffffffffffffffffffffffffffff021916908373ffffffffffffffffffffffffffffffffffffffff1602179055508173ffffffffffffffffffffffffffffffffffffffff168173ffffffffffffffffffffffffffffffffffffffff167f8be0079c531659141344cd1fd0a4f28419497f9722a3daafe3b4186f6b6457e060405160405180910390a35050565b600033905090565b6040518061014001604052806000815260200160608152602001606081526020016000815260200160608152602001606081526020016000600281111561277f5761277e612b70565b5b815260200160608152602001600073ffffffffffffffffffffffffffffffffffffffff168152602001600081525090565b6000604051905090565b600080fd5b600080fd5b600080fd5b600080fd5b6000601f19601f8301169050919050565b7f4e487b7100000000000000000000000000000000000000000000000000000000600052604160045260246000fd5b612817826127ce565b810181811067ffffffffffffffff82111715612836576128356127df565b5b80604052505050565b60006128496127b0565b9050612855828261280e565b919050565b600067ffffffffffffffff821115612875576128746127df565b5b61287e826127ce565b9050602081019050919050565b82818337600083830152505050565b60006128ad6128a88461285a565b61283f565b9050828152602081018484840111156128c9576128c86127c9565b5b6128d484828561288b565b509392505050565b600082601f8301126128f1576128f06127c4565b5b813561290184826020860161289a565b91505092915050565b6000819050919050565b61291d8161290a565b811461292857600080fd5b50565b60008135905061293a81612914565b92915050565b600080600080600060a0868803121561295c5761295b6127ba565b5b600086013567ffffffffffffffff81111561297a576129796127bf565b5b612986888289016128dc565b95505060206129978882890161292b565b945050604086013567ffffffffffffffff8111156129b8576129b76127bf565b5b6129c4888289016128dc565b935050606086013567ffffffffffffffff8111156129e5576129e46127bf565b5b6129f1888289016128dc565b925050608086013567ffffffffffffffff811115612a1257612a116127bf565b5b612a1e888289016128dc565b9150509295509295909350565b600073ffffffffffffffffffffffffffffffffffffffff82169050919050565b6000612a5682612a2b565b9050919050565b612a6681612a4b565b8114612a7157600080fd5b50565b600081359050612a8381612a5d565b92915050565b600060208284031215612a9f57612a9e6127ba565b5b6000612aad84828501612a74565b91505092915050565b600081519050919050565b600082825260208201905092915050565b6000819050602082019050919050565b612aeb8161290a565b82525050565b600081519050919050565b600082825260208201905092915050565b60005b83811015612b2b578082015181840152602081019050612b10565b60008484015250505050565b6000612b4282612af1565b612b4c8185612afc565b9350612b5c818560208601612b0d565b612b65816127ce565b840191505092915050565b7f4e487b7100000000000000000000000000000000000000000000000000000000600052602160045260246000fd5b60038110612bb057612baf612b70565b5b50565b6000819050612bc182612b9f565b919050565b6000612bd182612bb3565b9050919050565b612be181612bc6565b82525050565b612bf081612a4b565b82525050565b600061014083016000830151612c0f6000860182612ae2565b5060208301518482036020860152612c278282612b37565b91505060408301518482036040860152612c418282612b37565b9150506060830151612c566060860182612ae2565b5060808301518482036080860152612c6e8282612b37565b91505060a083015184820360a0860152612c888282612b37565b91505060c0830151612c9d60c0860182612bd8565b5060e083015184820360e0860152612cb58282612b37565b915050610100830151612ccc610100860182612be7565b50610120830151612ce1610120860182612ae2565b508091505092915050565b6000612cf88383612bf6565b905092915050565b6000602082019050919050565b6000612d1882612ab6565b612d228185612ac1565b935083602082028501612d3485612ad2565b8060005b85811015612d705784840389528151612d518582612cec565b9450612d5c83612d00565b925060208a01995050600181019050612d38565b50829750879550505050505092915050565b60006020820190508181036000830152612d9c8184612d0d565b905092915050565b600060208284031215612dba57612db96127ba565b5b6000612dc88482850161292b565b91505092915050565b6000819050919050565b612de481612dd1565b82525050565b6000602082019050612dff6000830184612ddb565b92915050565b60008060408385031215612e1c57612e1b6127ba565b5b6000612e2a8582860161292b565b925050602083013567ffffffffffffffff811115612e4b57612e4a6127bf565b5b612e57858286016128dc565b9150509250929050565b600061014083016000830151612e7a6000860182612ae2565b5060208301518482036020860152612e928282612b37565b91505060408301518482036040860152612eac8282612b37565b9150506060830151612ec16060860182612ae2565b5060808301518482036080860152612ed98282612b37565b91505060a083015184820360a0860152612ef38282612b37565b91505060c0830151612f0860c0860182612bd8565b5060e083015184820360e0860152612f208282612b37565b915050610100830151612f37610100860182612be7565b50610120830151612f4c610120860182612ae2565b508091505092915050565b60006020820190508181036000830152612f718184612e61565b905092915050565b612f8281612a4b565b82525050565b6000602082019050612f9d6000830184612f79565b92915050565b60008060408385031215612fba57612fb96127ba565b5b6000612fc885828601612a74565b9250506020612fd98582860161292b565b9150509250929050565b612fec8161290a565b82525050565b60006020820190506130076000830184612fe3565b92915050565b61301681612dd1565b811461302157600080fd5b50565b6000813590506130338161300d565b92915050565b60006020828403121561304f5761304e6127ba565b5b600061305d84828501613024565b91505092915050565b600082825260208201905092915050565b600061308282612af1565b61308c8185613066565b935061309c818560208601612b0d565b6130a5816127ce565b840191505092915050565b600060208201905081810360008301526130ca8184613077565b905092915050565b6130db81612bc6565b82525050565b6000610140820190506130f7600083018d612fe3565b8181036020830152613109818c613077565b9050818103604083015261311d818b613077565b905061312c606083018a612fe3565b818103608083015261313e8189613077565b905081810360a08301526131528188613077565b905061316160c08301876130d2565b81810360e08301526131738186613077565b9050613183610100830185612f79565b613191610120830184612fe3565b9b9a5050505050505050505050565b60008115159050919050565b6131b5816131a0565b82525050565b60006020820190506131d060008301846131ac565b92915050565b6000602082840312156131ec576131eb6127ba565b5b600082013567ffffffffffffffff81111561320a576132096127bf565b5b613216848285016128dc565b91505092915050565b600081905092915050565b600061323582612af1565b61323f818561321f565b935061324f818560208601612b0d565b80840191505092915050565b6000613267828461322a565b915081905092915050565b7f506c6f74206e756d62657220616c726561647920726567697374657265640000600082015250565b60006132a8601e83613066565b91506132b382613272565b602082019050919050565b600060208201905081810360008301526132d78161329b565b9050919050565b6000815190506132ed81612914565b92915050565b600060208284031215613309576133086127ba565b5b6000613317848285016132de565b91505092915050565b7f4e487b7100000000000000000000000000000000000000000000000000000000600052602260045260246000fd5b6000600282049050600182168061336757607f821691505b60208210810361337a57613379613320565b5b50919050565b60008190508160005260206000209050919050565b60006020601f8301049050919050565b600082821b905092915050565b6000600883026133e27fffffffffffffffffffffffffffffffffffffffffffffffffffffffffffffffff826133a5565b6133ec86836133a5565b95508019841693508086168417925050509392505050565b6000819050919050565b600061342961342461341f8461290a565b613404565b61290a565b9050919050565b6000819050919050565b6134438361340e565b61345761344f82613430565b8484546133b2565b825550505050565b600090565b61346c61345f565b61347781848461343a565b505050565b5b8181101561349b57613490600082613464565b60018101905061347d565b5050565b601f8211156134e0576134b181613380565b6134ba84613395565b810160208510156134c9578190505b6134dd6134d585613395565b83018261347c565b50505b505050565b600082821c905092915050565b6000613503600019846008026134e5565b1980831691505092915050565b600061351c83836134f2565b9150826002028217905092915050565b61353582612af1565b67ffffffffffffffff81111561354e5761354d6127df565b5b613558825461334f565b61356382828561349f565b600060209050601f8311600181146135965760008415613584578287015190505b61358e8582613510565b8655506135f6565b601f1984166135a486613380565b60005b828110156135cc578489015182556001820191506020850194506020810190506135a7565b868310156135e957848901516135e5601f8916826134f2565b8355505b6001600288020188555050505b505050505050565b7f4e487b7100000000000000000000000000000000000000000000000000000000600052603260045260246000fd5b7f4e6f7420746865206c616e646f776e6572000000000000000000000000000000600082015250565b6000613663601183613066565b915061366e8261362d565b602082019050919050565b6000602082019050818103600083015261369281613656565b9050919050565b7f4c616e64206d75737420626520617070726f7665640000000000000000000000600082015250565b60006136cf601583613066565b91506136da82613699565b602082019050919050565b600060208201905081810360008301526136fe816136c2565b9050919050565b6000819050919050565b61372061371b8261290a565b613705565b82525050565b60008160601b9050919050565b600061373e82613726565b9050919050565b600061375082613733565b9050919050565b61376861376382612a4b565b613745565b82525050565b600061377a828661370f565b60208201915061378a828561370f565b60208201915061379a8284613757565b601482019150819050949350505050565b7f4e6f7420616e20617574686f72697a656420676f7665726e6d656e74206f666660008201527f696369616c000000000000000000000000000000000000000000000000000000602082015250565b6000613807602583613066565b9150613812826137ab565b604082019050919050565b60006020820190508181036000830152613836816137fa565b9050919050565b7f4c616e64207265636f7264206973206e6f742070656e64696e67000000000000600082015250565b6000613873601a83613066565b915061387e8261383d565b602082019050919050565b600060208201905081810360008301526138a281613866565b9050919050565b600081546138b68161334f565b6138c08186613066565b945060018216600081146138db57600181146138f157613924565b60ff198316865281151560200286019350613924565b6138fa85613380565b60005b8381101561391c578154818901526001820191506020810190506138fd565b808801955050505b50505092915050565b6000604082019050818103600083015261394781856138a9565b9050818103602083015261395b8184613077565b90509392505050565b7f496e76616c6964206f7220616c726561647920757365642070726f6f66000000600082015250565b600061399a601d83613066565b91506139a582613964565b602082019050919050565b600060208201905081810360008301526139c98161398d565b9050919050565b7f4e487b7100000000000000000000000000000000000000000000000000000000600052601160045260246000fd5b6000613a0a8261290a565b9150613a158361290a565b9250828203905081811115613a2d57613a2c6139d0565b5b92915050565b6000613a3e8261290a565b91507fffffffffffffffffffffffffffffffffffffffffffffffffffffffffffffffff8203613a7057613a6f6139d0565b5b600182019050919050565b60006020820190508181036000830152613a9581846138a9565b90509291505056fea264697066735822122061003d87de1d3dffb2da942332e1503baff3ebabfc48591bceb3fd8afaec86cd64736f6c634300081c00336080604052348015600f57600080fd5b5060008081905550610279806100266000396000f3fe608060405234801561001057600080fd5b50600436106100415760003560e01c80632baeceb7146100465780639fa6a6e314610050578063d09de08a1461006e575b600080fd5b61004e610078565b005b6100586100d7565b6040516100659190610114565b60405180910390f35b6100766100e0565b005b60008054116100bc576040517f08c379a00000000000000000000000000000000000000000000000000000000081526004016100b39061018c565b60405180910390fd5b60016000808282546100ce91906101db565b92505081905550565b60008054905090565b60016000808282546100f2919061020f565b92505081905550565b6000819050919050565b61010e816100fb565b82525050565b60006020820190506101296000830184610105565b92915050565b600082825260208201905092915050565b7f436f756e7465723a2064656372656d656e74206f766572666c6f770000000000600082015250565b6000610176601b8361012f565b915061018182610140565b602082019050919050565b600060208201905081810360008301526101a581610169565b9050919050565b7f4e487b7100000000000000000000000000000000000000000000000000000000600052601160045260246000fd5b60006101e6826100fb565b91506101f1836100fb565b9250828203905081811115610209576102086101ac565b5b92915050565b600061021a826100fb565b9150610225836100fb565b925082820190508082111561023d5761023c6101ac565b5b9291505056fea26469706673582212202fb0f72abe038dea731199639be090ff641168453b7ccb5225d1854e95a5526a64736f6c634300081c0033",
  "linkReferences": {},
  "deployedLinkReferences": {}
}