{
  "_format": "hh-sol-artifact-1",
  "contractName": "LandRegistry",
  "sourceName": "contracts/LandRegistry.sol",
  "abi": [
    {
      "inputs": [
        {
          "internalType": "string",
          "name": "_adminPublicKey",
          "type": "string"
        }
      ],
      "stateMutability": "nonpayable",
      "type": "constructor"
    },
    {
      "inputs": [
        {
          "internalType": "address",
          "name": "owner",
          "type": "address"
        }
      ],
      "name": "OwnableInvalidOwner",
      "type": "error"
    },
    {
      "inputs": [
        {
          "internalType": "address",
          "name": "account",
          "type": "address"
        }
      ],
      "name": "OwnableUnauthorizedAccount",
      "type": "error"
    },
    {
      "inputs": [],
      "name": "ReentrancyGuardReentrantCall",
      "type": "error"
    },
    {
      "anonymous": false,
      "inputs": [
        {
          "indexed": true,
          "internalType": "string",
          "name": "newAdminPublicKey",
          "type": "string"
        }
      ],
      "name": "AdminPublicKeyUpdated",
      "type": "event"
    },
    {
      "anonymous": false,
      "inputs": [
        {
          "indexed": true,
          "internalType": "uint256",
          "name": "id",
          "type": "uint256"
        },
        {
          "indexed": false,
          "internalType": "string",
          "name": "plotNumber",
          "type": "string"
        },
        {
          "indexed": true,
          "internalType": "address",
          "name": "owner",
          "type": "address"
        }
      ],
      "name": "LandRegistered",
      "type": "event"
    },
    {
      "anonymous": false,
      "inputs": [
        {
          "indexed": true,
          "internalType": "uint256",
          "name": "id",
          "type": "uint256"
        },
        {
          "indexed": false,
          "internalType": "string",
          "name": "plotNumber",
          "type": "string"
        },
        {
          "indexed": false,
          "internalType": "string",
          "name": "reason",
          "type": "string"
        },
        {
          "indexed": true,
          "internalType": "address",
          "name": "official",
          "type": "address"
        }
      ],
      "name": "LandRejected",
      "type": "event"
    },
    {
      "anonymous": false,
      "inputs": [
        {
          "indexed": true,
          "internalType": "uint256",
          "name": "id",
          "type": "uint256"
        },
        {
          "indexed": false,
          "internalType": "string",
          "name": "plotNumber",
          "type": "string"
        },
        {
          "indexed": true,
          "internalType": "address",
          "name": "official",
          "type": "address"
        }
      ],
      "name": "LandVerified",
      "type": "event"
    },
    {
      "anonymous": false,
      "inputs": [
        {
          "indexed": true,
          "internalType": "address",
          "name": "official",
          "type": "address"
        }
      ],
      "name": "OfficialAdded",
      "type": "event"
    },
    {
      "anonymous": false,
      "inputs": [
        {
          "indexed": true,
          "internalType": "address",
          "name": "official",
          "type": "address"
        }
      ],
      "name": "OfficialRemoved",
      "type": "event"
    },
    {
      "anonymous": false,
      "inputs": [
        {
          "indexed": true,
          "internalType": "address",
          "name": "previousOwner",
          "type": "address"
        },
        {
          "indexed": true,
          "internalType": "address",
          "name": "newOwner",
          "type": "address"
        }
      ],
      "name": "OwnershipTransferred",
      "type": "event"
    },
    {
      "anonymous": false,
      "inputs": [
        {
          "indexed": true,
          "internalType": "uint256",
          "name": "id",
          "type": "uint256"
        },
        {
          "indexed": false,
          "internalType": "bytes32",
          "name": "proofHash",
          "type": "bytes32"
        },
        {
          "indexed": true,
          "internalType": "address",
          "name": "owner",
          "type": "address"
        }
      ],
      "name": "ProofGenerated",
      "type": "event"
    },
    {
      "anonymous": false,
      "inputs": [
        {
          "indexed": true,
          "internalType": "uint256",
          "name": "id",
          "type": "uint256"
        },
        {
          "indexed": false,
          "internalType": "bytes32",
          "name": "proofHash",
          "type": "bytes32"
        },
        {
          "indexed": true,
          "internalType": "address",
          "name": "verifier",
          "type": "address"
        }
      ],
      "name": "ProofUsed",
      "type": "event"
    },
    {
      "inputs": [
        {
          "internalType": "address",
          "name": "_official",
          "type": "address"
        }
      ],
      "name": "addOfficial",
      "outputs": [],
      "stateMutability": "nonpayable",
      "type": "function"
    },
    {
      "inputs": [],
      "name": "adminPublicKey",
      "outputs": [
        {
          "internalType": "string",
          "name": "",
          "type": "string"
        }
      ],
      "stateMutability": "view",
      "type": "function"
    },
    {
      "inputs": [
        {
          "internalType": "bytes32",
          "name": "_proofHash",
          "type": "bytes32"
        }
      ],
      "name": "checkProof",
      "outputs": [
        {
          "components": [
            {
              "internalType": "uint256",
              "name": "id",
              "type": "uint256"
            },
            {
              "internalType": "string",
              "name": "ownerFullName",
              "type": "string"
            },
            {
              "internalType": "string",
              "name": "plotNumber",
              "type": "string"
            },
            {
              "internalType": "uint256",
              "name": "landSize",
              "type": "uint256"
            },
            {
              "internalType": "string",
              "name": "gpsCoordinates",
              "type": "string"
            },
            {
              "internalType": "string",
              "name": "encryptedTitleDeedHash",
              "type": "string"
            },
            {
              "internalType": "enum LandRegistry.VerificationStatus",
              "name": "status",
              "type": "uint8"
            },
            {
              "internalType": "string",
              "name": "rejectionReason",
              "type": "string"
            },
            {
              "internalType": "address",
              "name": "owner",
              "type": "address"
            },
            {
              "internalType": "uint256",
              "name": "timestamp",
              "type": "uint256"
            }
          ],
          "internalType": "struct LandRegistry.LandRecord",
          "name": "",
          "type": "tuple"
        }
      ],
      "stateMutability": "view",
      "type": "function"
    },
    {
      "inputs": [
        {
          "internalType": "uint256",
          "name": "_landId",
          "type": "uint256"
        }
      ],
      "name": "generateProof",
      "outputs": [
        {
          "internalType": "bytes32",
          "name": "",
          "type": "bytes32"
        }
      ],
      "stateMutability": "nonpayable",
      "type": "function"
    },
    {
      "inputs": [],
      "name": "getAllLands",
      "outputs": [
        {
          "components": [
            {
              "internalType": "uint256",
              "name": "id",
              "type": "uint256"
            },
            {
              "internalType": "string",
              "name": "ownerFullName",
              "type": "string"
            },
            {
              "internalType": "string",
              "name": "plotNumber",
              "type": "string"
            },
            {
              "internalType": "uint256",
              "name": "landSize",
              "type": "uint256"
            },
            {
              "internalType": "string",
              "name": "gpsCoordinates",
              "type": "string"
            },
            {
              "internalType": "string",
              "name": "encryptedTitleDeedHash",
              "type": "string"
            },
            {
              "internalType": "enum LandRegistry.VerificationStatus",
              "name": "status",
              "type": "uint8"
            },
            {
              "internalType": "string",
              "name": "rejectionReason",
              "type": "string"
            },
            {
              "internalType": "address",
              "name": "owner",
              "type": "address"
            },
            {
              "internalType": "uint256",
              "name": "timestamp",
              "type": "uint256"
            }
          ],
          "internalType": "struct LandRegistry.LandRecord[]",
          "name": "",
          "type": "tuple[]"
        }
      ],
      "stateMutability": "view",
      "type": "function"
    },
    {
      "inputs": [
        {
          "internalType": "uint256",
          "name": "_landId",
          "type": "uint256"
        }
      ],
      "name": "getLandById",
      "outputs": [
        {
          "components": [
            {
              "internalType": "uint256",
              "name": "id",
              "type": "uint256"
            },
            {
              "internalType": "string",
              "name": "ownerFullName",
              "type": "string"
            },
            {
              "internalType": "string",
              "name": "plotNumber",
              "type": "string"
            },
            {
              "internalType": "uint256",
              "name": "landSize",
              "type": "uint256"
            },
            {
              "internalType": "string",
              "name": "gpsCoordinates",
              "type": "string"
            },
            {
              "internalType": "string",
              "name": "encryptedTitleDeedHash",
              "type": "string"
            },
            {
              "internalType": "enum LandRegistry.VerificationStatus",
              "name": "status",
              "type": "uint8"
            },
            {
              "internalType": "string",
              "name": "rejectionReason",
              "type": "string"
            },
            {
              "internalType": "address",
              "name": "owner",
              "type": "address"
            },
            {
              "internalType": "uint256",
              "name": "timestamp",
              "type": "uint256"
            }
          ],
          "internalType": "struct LandRegistry.LandRecord",
          "name": "",
          "type": "tuple"
        }
      ],
      "stateMutability": "view",
      "type": "function"
    },
    {
      "inputs": [
        {
          "internalType": "address",
          "name": "_owner",
          "type": "address"
        }
      ],
      "name": "getLandsByOwner",
      "outputs": [
        {
          "components": [
            {
              "internalType": "uint256",
              "name": "id",
              "type": "uint256"
            },
            {
              "internalType": "string",
              "name": "ownerFullName",
              "type": "string"
            },
            {
              "internalType": "string",
              "name": "plotNumber",
              "type": "string"
            },
            {
              "internalType": "uint256",
              "name": "landSize",
              "type": "uint256"
            },
            {
              "internalType": "string",
              "name": "gpsCoordinates",
              "type": "string"
            },
            {
              "internalType": "string",
              "name": "encryptedTitleDeedHash",
              "type": "string"
            },
            {
              "internalType": "enum LandRegistry.VerificationStatus",
              "name": "status",
              "type": "uint8"
            },
            {
              "internalType": "string",
              "name": "rejectionReason",
              "type": "string"
            },
            {
              "internalType": "address",
              "name": "owner",
              "type": "address"
            },
            {
              "internalType": "uint256",
              "name": "timestamp",
              "type": "uint256"
            }
          ],
          "internalType": "struct LandRegistry.LandRecord[]",
          "name": "",
          "type": "tuple[]"
        }
      ],
      "stateMutability": "view",
      "type": "function"
    },
    {
      "inputs": [
        {
          "internalType": "address",
          "name": "",
          "type": "address"
        }
      ],
      "name": "governmentOfficials",
      "outputs": [
        {
          "internalType": "bool",
          "name": "",
          "type": "bool"
        }
      ],
      "stateMutability": "view",
      "type": "function"
    },
    {
      "inputs": [
        {
          "internalType": "address",
          "name": "",
          "type": "address"
        },
        {
          "internalType": "uint256",
          "name": "",
          "type": "uint256"
        }
      ],
      "name": "landIdsByOwner",
      "outputs": [
        {
          "internalType": "uint256",
          "name": "",
          "type": "uint256"
        }
      ],
      "stateMutability": "view",
      "type": "function"
    },
    {
      "inputs": [
        {
          "internalType": "uint256",
          "name": "",
          "type": "uint256"
        }
      ],
      "name": "lands",
      "outputs": [
        {
          "internalType": "uint256",
          "name": "id",
          "type": "uint256"
        },
        {
          "internalType": "string",
          "name": "ownerFullName",
          "type": "string"
        },
        {
          "internalType": "string",
          "name": "plotNumber",
          "type": "string"
        },
        {
          "internalType": "uint256",
          "name": "landSize",
          "type": "uint256"
        },
        {
          "internalType": "string",
          "name": "gpsCoordinates",
          "type": "string"
        },
        {
          "internalType": "string",
          "name": "encryptedTitleDeedHash",
          "type": "string"
        },
        {
          "internalType": "enum LandRegistry.VerificationStatus",
          "name": "status",
          "type": "uint8"
        },
        {
          "internalType": "string",
          "name": "rejectionReason",
          "type": "string"
        },
        {
          "internalType": "address",
          "name": "owner",
          "type": "address"
        },
        {
          "internalType": "uint256",
          "name": "timestamp",
          "type": "uint256"
        }
      ],
      "stateMutability": "view",
      "type": "function"
    },
    {
      "inputs": [],
      "name": "owner",
      "outputs": [
        {
          "internalType": "address",
          "name": "",
          "type": "address"
        }
      ],
      "stateMutability": "view",
      "type": "function"
    },
    {
      "inputs": [
        {
          "internalType": "string",
          "name": "_plotNumber",
          "type": "string"
        },
        {
          "internalType": "uint256",
          "name": "_landSize",
          "type": "uint256"
        },
        {
          "internalType": "string",
          "name": "_gpsCoordinates",
          "type": "string"
        },
        {
          "internalType": "string",
          "name": "_encryptedTitleDeedHash",
          "type": "string"
        },
        {
          "internalType": "string",
          "name": "_ownerFullName",
          "type": "string"
        }
      ],
      "name": "registerLand",
      "outputs": [],
      "stateMutability": "nonpayable",
      "type": "function"
    },
    {
      "inputs": [
        {
          "internalType": "uint256",
          "name": "_landId",
          "type": "uint256"
        },
        {
          "internalType": "string",
          "name": "_reason",
          "type": "string"
        }
      ],
      "name": "rejectLand",
      "outputs": [],
      "stateMutability": "nonpayable",
      "type": "function"
    },
    {
      "inputs": [
        {
          "internalType": "address",
          "name": "_official",
          "type": "address"
        }
      ],
      "name": "removeOfficial",
      "outputs": [],
      "stateMutability": "nonpayable",
      "type": "function"
    },
    {
      "inputs": [],
      "name": "renounceOwnership",
      "outputs": [],
      "stateMutability": "nonpayable",
      "type": "function"
    },
    {
      "inputs": [
        {
          "internalType": "string",
          "name": "_adminPublicKey",
          "type": "string"
        }
      ],
      "name": "setAdminPublicKey",
      "outputs": [],
      "stateMutability": "nonpayable",
      "type": "function"
    },
    {
      "inputs": [
        {
          "internalType": "address",
          "name": "newOwner",
          "type": "address"
        }
      ],
      "name": "transferOwnership",
      "outputs": [],
      "stateMutability": "nonpayable",
      "type": "function"
    },
    {
      "inputs": [
        {
          "internalType": "uint256",
          "name": "_landId",
          "type": "uint256"
        }
      ],
      "name": "verifyLand",
      "outputs": [],
      "stateMutability": "nonpayable",
      "type": "function"
    },
    {
      "inputs": [
        {
          "internalType": "bytes32",
          "name": "_proofHash",
          "type": "bytes32"
        }
      ],
      "name": "verifyProof",
      "outputs": [],
      "stateMutability": "nonpayable",
      "type": "function"
    }
  ],
  "bytecode": "0x608060405234801561001057600080fd5b506040516145de3803806145de833981810160405281019061003291906103d9565b33600073ffffffffffffffffffffffffffffffffffffffff168173ffffffffffffffffffffffffffffffffffffffff16036100a55760006040517f1e4fbdf700000000000000000000000000000000000000000000000000000000815260040161009c9190610463565b60405180910390fd5b6100b48161019360201b60201c565b506001808190555080600890816100cb919061069f565b506040516100d890610257565b604051809103906000f0801580156100f4573d6000803e3d6000fd5b50600260006101000a81548173ffffffffffffffffffffffffffffffffffffffff021916908373ffffffffffffffffffffffffffffffffffffffff1602179055506001600660003373ffffffffffffffffffffffffffffffffffffffff1673ffffffffffffffffffffffffffffffffffffffff16815260200190815260200160002060006101000a81548160ff02191690831515021790555050610771565b60008060009054906101000a900473ffffffffffffffffffffffffffffffffffffffff169050816000806101000a81548173ffffffffffffffffffffffffffffffffffffffff021916908373ffffffffffffffffffffffffffffffffffffffff1602179055508173ffffffffffffffffffffffffffffffffffffffff168173ffffffffffffffffffffffffffffffffffffffff167f8be0079c531659141344cd1fd0a4f28419497f9722a3daafe3b4186f6b6457e060405160405180910390a35050565b61029f8061433f83390190565b6000604051905090565b600080fd5b600080fd5b600080fd5b600080fd5b6000601f19601f8301169050919050565b7f4e487b7100000000000000000000000000000000000000000000000000000000600052604160045260246000fd5b6102cb82610282565b810181811067ffffffffffffffff821117156102ea576102e9610293565b5b80604052505050565b60006102fd610264565b905061030982826102c2565b919050565b600067ffffffffffffffff82111561032957610328610293565b5b61033282610282565b9050602081019050919050565b60005b8381101561035d578082015181840152602081019050610342565b60008484015250505050565b600061037c6103778461030e565b6102f3565b9050828152602081018484840111156103985761039761027d565b5b6103a384828561033f565b509392505050565b600082601f8301126103c0576103bf610278565b5b81516103d0848260208601610369565b91505092915050565b6000602082840312156103ef576103ee61026e565b5b600082015167ffffffffffffffff81111561040d5761040c610273565b5b610419848285016103ab565b91505092915050565b600073ffffffffffffffffffffffffffffffffffffffff82169050919050565b600061044d82610422565b9050919050565b61045d81610442565b82525050565b60006020820190506104786000830184610454565b92915050565b600081519050919050565b7f4e487b7100000000000000000000000000000000000000000000000000000000600052602260045260246000fd5b600060028204905060018216806104d057607f821691505b6020821081036104e3576104e2610489565b5b50919050565b60008190508160005260206000209050919050565b60006020601f8301049050919050565b600082821b905092915050565b60006008830261054b7fffffffffffffffffffffffffffffffffffffffffffffffffffffffffffffffff8261050e565b610555868361050e565b95508019841693508086168417925050509392505050565b6000819050919050565b6000819050919050565b600061059c6105976105928461056d565b610577565b61056d565b9050919050565b6000819050919050565b6105b683610581565b6105ca6105c2826105a3565b84845461051b565b825550505050565b600090565b6105df6105d2565b6105ea8184846105ad565b505050565b5b8181101561060e576106036000826105d7565b6001810190506105f0565b5050565b601f82111561065357610624816104e9565b61062d846104fe565b8101602085101561063c578190505b610650610648856104fe565b8301826105ef565b50505b505050565b600082821c905092915050565b600061067660001984600802610658565b1980831691505092915050565b600061068f8383610665565b9150826002028217905092915050565b6106a88261047e565b67ffffffffffffffff8111156106c1576106c0610293565b5b6106cb82546104b8565b6106d6828285610612565b600060209050601f83116001811461070957600084156106f7578287015190505b6107018582610683565b865550610769565b601f198416610717866104e9565b60005b8281101561073f5784890151825560018201915060208501945060208101905061071a565b8683101561075c5784890151610758601f891682610665565b8355505b6001600288020188555050505b505050505050565b613bbf806107806000396000f3fe608060405234801561001057600080fd5b50600436106101215760003560e01c8063aa6102be116100ad578063e261f1e511610071578063e261f1e514610306578063e5c3bf571461033f578063f2fde38b1461036f578063f9c43bdf1461038b578063fa1f5272146103a757610121565b8063aa6102be14610262578063ac840db014610292578063b142b4ec146102ae578063b7b6e543146102ca578063be943a59146102e857610121565b80634fea4954116100f45780634fea4954146101d257806359122393146101ee578063715018a61461020a578063727c04c8146102145780638da5cb5b1461024457610121565b80632e7d684014610126578063455b9d2314610142578063471a4c34146101725780634d44f108146101a2575b600080fd5b610140600480360381019061013b91906129c0565b6103c3565b005b61015c60048036038101906101579190612b09565b6107c4565b6040516101699190612e02565b60405180910390f35b61018c60048036038101906101879190612e24565b610cb5565b6040516101999190612e6a565b60405180910390f35b6101bc60048036038101906101b79190612eb1565b610e86565b6040516101c99190612fd4565b60405180910390f35b6101ec60048036038101906101e79190612b09565b611299565b005b61020860048036038101906102039190612ff6565b61133f565b005b610212611522565b005b61022e60048036038101906102299190612e24565b611536565b60405161023b9190612fd4565b60405180910390f35b61024c6118ed565b6040516102599190613061565b60405180910390f35b61027c6004803603810190610277919061307c565b611916565b60405161028991906130cb565b60405180910390f35b6102ac60048036038101906102a79190612b09565b611947565b005b6102c860048036038101906102c39190612eb1565b6119ed565b005b6102d2611ab2565b6040516102df9190612e02565b60405180910390f35b6102f0611f9d565b6040516102fd9190613130565b60405180910390f35b610320600480360381019061031b9190612e24565b61202b565b6040516103369a99989796959493929190613161565b60405180910390f35b61035960048036038101906103549190612b09565b612354565b604051610366919061323b565b60405180910390f35b61038960048036038101906103849190612b09565b612374565b005b6103a560048036038101906103a09190612e24565b6123fa565b005b6103c160048036038101906103bc9190613256565b6125b6565b005b6103cb612613565b60006005866040516103dd91906132db565b9081526020016040518091039020541461042c576040517f08c379a00000000000000000000000000000000000000000000000000000000081526004016104239061333e565b60405180910390fd5b6000600260009054906101000a900473ffffffffffffffffffffffffffffffffffffffff1673ffffffffffffffffffffffffffffffffffffffff16639fa6a6e36040518163ffffffff1660e01b8152600401602060405180830381865afa15801561049b573d6000803e3d6000fd5b505050506040513d601f19601f820116820180604052508101906104bf9190613373565b90506040518061014001604052808281526020018381526020018781526020018681526020018581526020018481526020016000600281111561050557610504612bf0565b5b81526020016040518060200160405280600081525081526020013373ffffffffffffffffffffffffffffffffffffffff168152602001428152506003600083815260200190815260200160002060008201518160000155602082015181600101908161057191906135ac565b50604082015181600201908161058791906135ac565b506060820151816003015560808201518160040190816105a791906135ac565b5060a08201518160050190816105bd91906135ac565b5060c08201518160060160006101000a81548160ff021916908360028111156105e9576105e8612bf0565b5b021790555060e082015181600701908161060391906135ac565b506101008201518160080160006101000a81548173ffffffffffffffffffffffffffffffffffffffff021916908373ffffffffffffffffffffffffffffffffffffffff1602179055506101208201518160090155905050600260009054906101000a900473ffffffffffffffffffffffffffffffffffffffff1673ffffffffffffffffffffffffffffffffffffffff1663d09de08a6040518163ffffffff1660e01b8152600401600060405180830381600087803b1580156106c457600080fd5b505af11580156106d8573d6000803e3d6000fd5b50505050806005876040516106ed91906132db565b908152602001604051809103902081905550600460003373ffffffffffffffffffffffffffffffffffffffff1673ffffffffffffffffffffffffffffffffffffffff1681526020019081526020016000208190806001815401808255809150506001900390600052602060002001600090919091909150553373ffffffffffffffffffffffffffffffffffffffff16817f0a14f5ae2f9ee538270143056894f8128fb116c653fb2fde847dcebdd181622e886040516107ac9190613130565b60405180910390a3506107bd612659565b5050505050565b60606000600460008473ffffffffffffffffffffffffffffffffffffffff1673ffffffffffffffffffffffffffffffffffffffff16815260200190815260200160002080548060200260200160405190810160405280929190818152602001828054801561085157602002820191906000526020600020905b81548152602001906001019080831161083d575b505050505090506000815167ffffffffffffffff8111156108755761087461285f565b5b6040519080825280602002602001820160405280156108ae57816020015b61089b6127b5565b8152602001906001900390816108935790505b50905060005b8251811015610caa57600360008483815181106108d4576108d361367e565b5b602002602001015181526020019081526020016000206040518061014001604052908160008201548152602001600182018054610910906133cf565b80601f016020809104026020016040519081016040528092919081815260200182805461093c906133cf565b80156109895780601f1061095e57610100808354040283529160200191610989565b820191906000526020600020905b81548152906001019060200180831161096c57829003601f168201915b505050505081526020016002820180546109a2906133cf565b80601f01602080910402602001604051908101604052809291908181526020018280546109ce906133cf565b8015610a1b5780601f106109f057610100808354040283529160200191610a1b565b820191906000526020600020905b8154815290600101906020018083116109fe57829003601f168201915b5050505050815260200160038201548152602001600482018054610a3e906133cf565b80601f0160208091040260200160405190810160405280929190818152602001828054610a6a906133cf565b8015610ab75780601f10610a8c57610100808354040283529160200191610ab7565b820191906000526020600020905b815481529060010190602001808311610a9a57829003601f168201915b50505050508152602001600582018054610ad0906133cf565b80601f0160208091040260200160405190810160405280929190818152602001828054610afc906133cf565b8015610b495780601f10610b1e57610100808354040283529160200191610b49565b820191906000526020600020905b815481529060010190602001808311610b2c57829003601f168201915b505050505081526020016006820160009054906101000a900460ff166002811115610b7757610b76612bf0565b5b6002811115610b8957610b88612bf0565b5b8152602001600782018054610b9d906133cf565b80601f0160208091040260200160405190810160405280929190818152602001828054610bc9906133cf565b8015610c165780601f10610beb57610100808354040283529160200191610c16565b820191906000526020600020905b815481529060010190602001808311610bf957829003601f168201915b505050505081526020016008820160009054906101000a900473ffffffffffffffffffffffffffffffffffffffff1673ffffffffffffffffffffffffffffffffffffffff1673ffffffffffffffffffffffffffffffffffffffff168152602001600982015481525050828281518110610c9257610c9161367e565b5b602002602001018190525080806001019150506108b4565b508092505050919050565b6000813373ffffffffffffffffffffffffffffffffffffffff166003600083815260200190815260200160002060080160009054906101000a900473ffffffffffffffffffffffffffffffffffffffff1673ffffffffffffffffffffffffffffffffffffffff1614610d5c576040517f08c379a0000000000000000000000000000000000000000000000000000000008152600401610d53906136f9565b60405180910390fd5b60016002811115610d7057610d6f612bf0565b5b6003600085815260200190815260200160002060060160009054906101000a900460ff166002811115610da657610da5612bf0565b5b14610de6576040517f08c379a0000000000000000000000000000000000000000000000000000000008152600401610ddd90613765565b60405180910390fd5b6000428433604051602001610dfd939291906137ee565b6040516020818303038152906040528051906020012090508360076000838152602001908152602001600020819055503373ffffffffffffffffffffffffffffffffffffffff16847fd288377462b9636abf3f2c3900952588a057f865e4537484b0f33e35fc4f65ce83604051610e749190612e6a565b60405180910390a38092505050919050565b610e8e6127b5565b60006007600084815260200190815260200160002054905060008103610ee9576040517f08c379a0000000000000000000000000000000000000000000000000000000008152600401610ee090613877565b60405180910390fd5b600360008281526020019081526020016000206040518061014001604052908160008201548152602001600182018054610f22906133cf565b80601f0160208091040260200160405190810160405280929190818152602001828054610f4e906133cf565b8015610f9b5780601f10610f7057610100808354040283529160200191610f9b565b820191906000526020600020905b815481529060010190602001808311610f7e57829003601f168201915b50505050508152602001600282018054610fb4906133cf565b80601f0160208091040260200160405190810160405280929190818152602001828054610fe0906133cf565b801561102d5780601f106110025761010080835404028352916020019161102d565b820191906000526020600020905b81548152906001019060200180831161101057829003601f168201915b5050505050815260200160038201548152602001600482018054611050906133cf565b80601f016020809104026020016040519081016040528092919081815260200182805461107c906133cf565b80156110c95780601f1061109e576101008083540402835291602001916110c9565b820191906000526020600020905b8154815290600101906020018083116110ac57829003601f168201915b505050505081526020016005820180546110e2906133cf565b80601f016020809104026020016040519081016040528092919081815260200182805461110e906133cf565b801561115b5780601f106111305761010080835404028352916020019161115b565b820191906000526020600020905b81548152906001019060200180831161113e57829003601f168201915b505050505081526020016006820160009054906101000a900460ff16600281111561118957611188612bf0565b5b600281111561119b5761119a612bf0565b5b81526020016007820180546111af906133cf565b80601f01602080910402602001604051908101604052809291908181526020018280546111db906133cf565b80156112285780601f106111fd57610100808354040283529160200191611228565b820191906000526020600020905b81548152906001019060200180831161120b57829003601f168201915b505050505081526020016008820160009054906101000a900473ffffffffffffffffffffffffffffffffffffffff1673ffffffffffffffffffffffffffffffffffffffff1673ffffffffffffffffffffffffffffffffffffffff168152602001600982015481525050915050919050565b6112a1612662565b6000600660008373ffffffffffffffffffffffffffffffffffffffff1673ffffffffffffffffffffffffffffffffffffffff16815260200190815260200160002060006101000a81548160ff0219169083151502179055508073ffffffffffffffffffffffffffffffffffffffff167f6870c940cab428231ba488bb666ecfb340724efd013cd7d4eaa6b26aa97f280860405160405180910390a250565b600660003373ffffffffffffffffffffffffffffffffffffffff1673ffffffffffffffffffffffffffffffffffffffff16815260200190815260200160002060009054906101000a900460ff166113cb576040517f08c379a00000000000000000000000000000000000000000000000000000000081526004016113c290613909565b60405180910390fd5b600060028111156113df576113de612bf0565b5b6003600084815260200190815260200160002060060160009054906101000a900460ff16600281111561141557611414612bf0565b5b14611455576040517f08c379a000000000000000000000000000000000000000000000000000000000815260040161144c90613975565b60405180910390fd5b60026003600084815260200190815260200160002060060160006101000a81548160ff0219169083600281111561148f5761148e612bf0565b5b0217905550806003600084815260200190815260200160002060070190816114b791906135ac565b503373ffffffffffffffffffffffffffffffffffffffff16827f894d8599a674bdd0d3eca5bb4f4627461f48a8b2c6ffd956e23faee58595bda16003600086815260200190815260200160002060020184604051611516929190613a19565b60405180910390a35050565b61152a612662565b61153460006126e9565b565b61153e6127b5565b600360008381526020019081526020016000206040518061014001604052908160008201548152602001600182018054611577906133cf565b80601f01602080910402602001604051908101604052809291908181526020018280546115a3906133cf565b80156115f05780601f106115c5576101008083540402835291602001916115f0565b820191906000526020600020905b8154815290600101906020018083116115d357829003601f168201915b50505050508152602001600282018054611609906133cf565b80601f0160208091040260200160405190810160405280929190818152602001828054611635906133cf565b80156116825780601f1061165757610100808354040283529160200191611682565b820191906000526020600020905b81548152906001019060200180831161166557829003601f168201915b50505050508152602001600382015481526020016004820180546116a5906133cf565b80601f01602080910402602001604051908101604052809291908181526020018280546116d1906133cf565b801561171e5780601f106116f35761010080835404028352916020019161171e565b820191906000526020600020905b81548152906001019060200180831161170157829003601f168201915b50505050508152602001600582018054611737906133cf565b80601f0160208091040260200160405190810160405280929190818152602001828054611763906133cf565b80156117b05780601f10611785576101008083540402835291602001916117b0565b820191906000526020600020905b81548152906001019060200180831161179357829003601f168201915b505050505081526020016006820160009054906101000a900460ff1660028111156117de576117dd612bf0565b5b60028111156117f0576117ef612bf0565b5b8152602001600782018054611804906133cf565b80601f0160208091040260200160405190810160405280929190818152602001828054611830906133cf565b801561187d5780601f106118525761010080835404028352916020019161187d565b820191906000526020600020905b81548152906001019060200180831161186057829003601f168201915b505050505081526020016008820160009054906101000a900473ffffffffffffffffffffffffffffffffffffffff1673ffffffffffffffffffffffffffffffffffffffff1673ffffffffffffffffffffffffffffffffffffffff1681526020016009820154815250509050919050565b60008060009054906101000a900473ffffffffffffffffffffffffffffffffffffffff16905090565b6004602052816000526040600020818154811061193257600080fd5b90600052602060002001600091509150505481565b61194f612662565b6001600660008373ffffffffffffffffffffffffffffffffffffffff1673ffffffffffffffffffffffffffffffffffffffff16815260200190815260200160002060006101000a81548160ff0219169083151502179055508073ffffffffffffffffffffffffffffffffffffffff167fcd902338c077954bb88183435a933f4d31a1251a6bc80aa0b0e6027111d6e8e860405160405180910390a250565b60006007600083815260200190815260200160002054905060008103611a48576040517f08c379a0000000000000000000000000000000000000000000000000000000008152600401611a3f90613a9c565b60405180910390fd5b60076000838152602001908152602001600020600090553373ffffffffffffffffffffffffffffffffffffffff16817ff59da9a73a824c39ecd3e156ebc161bcbf5fedae0cdf9bbc29ce3c60821d604c84604051611aa69190612e6a565b60405180910390a35050565b60606000600260009054906101000a900473ffffffffffffffffffffffffffffffffffffffff1673ffffffffffffffffffffffffffffffffffffffff16639fa6a6e36040518163ffffffff1660e01b8152600401602060405180830381865afa158015611b23573d6000803e3d6000fd5b505050506040513d601f19601f82011682018060405250810190611b479190613373565b905060008167ffffffffffffffff811115611b6557611b6461285f565b5b604051908082528060200260200182016040528015611b9e57816020015b611b8b6127b5565b815260200190600190039081611b835790505b5090506000600190505b828111611f9457600360008281526020019081526020016000206040518061014001604052908160008201548152602001600182018054611be8906133cf565b80601f0160208091040260200160405190810160405280929190818152602001828054611c14906133cf565b8015611c615780601f10611c3657610100808354040283529160200191611c61565b820191906000526020600020905b815481529060010190602001808311611c4457829003601f168201915b50505050508152602001600282018054611c7a906133cf565b80601f0160208091040260200160405190810160405280929190818152602001828054611ca6906133cf565b8015611cf35780601f10611cc857610100808354040283529160200191611cf3565b820191906000526020600020905b815481529060010190602001808311611cd657829003601f168201915b5050505050815260200160038201548152602001600482018054611d16906133cf565b80601f0160208091040260200160405190810160405280929190818152602001828054611d42906133cf565b8015611d8f5780601f10611d6457610100808354040283529160200191611d8f565b820191906000526020600020905b815481529060010190602001808311611d7257829003601f168201915b50505050508152602001600582018054611da8906133cf565b80601f0160208091040260200160405190810160405280929190818152602001828054611dd4906133cf565b8015611e215780601f10611df657610100808354040283529160200191611e21565b820191906000526020600020905b815481529060010190602001808311611e0457829003601f168201915b505050505081526020016006820160009054906101000a900460ff166002811115611e4f57611e4e612bf0565b5b6002811115611e6157611e60612bf0565b5b8152602001600782018054611e75906133cf565b80601f0160208091040260200160405190810160405280929190818152602001828054611ea1906133cf565b8015611eee5780601f10611ec357610100808354040283529160200191611eee565b820191906000526020600020905b815481529060010190602001808311611ed157829003601f168201915b505050505081526020016008820160009054906101000a900473ffffffffffffffffffffffffffffffffffffffff1673ffffffffffffffffffffffffffffffffffffffff1673ffffffffffffffffffffffffffffffffffffffff16815260200160098201548152505082600183611f659190613aeb565b81518110611f7657611f7561367e565b5b60200260200101819052508080611f8c90613b1f565b915050611ba8565b50809250505090565b60088054611faa906133cf565b80601f0160208091040260200160405190810160405280929190818152602001828054611fd6906133cf565b80156120235780601f10611ff857610100808354040283529160200191612023565b820191906000526020600020905b81548152906001019060200180831161200657829003601f168201915b505050505081565b6003602052806000526040600020600091509050806000015490806001018054612054906133cf565b80601f0160208091040260200160405190810160405280929190818152602001828054612080906133cf565b80156120cd5780601f106120a2576101008083540402835291602001916120cd565b820191906000526020600020905b8154815290600101906020018083116120b057829003601f168201915b5050505050908060020180546120e2906133cf565b80601f016020809104026020016040519081016040528092919081815260200182805461210e906133cf565b801561215b5780601f106121305761010080835404028352916020019161215b565b820191906000526020600020905b81548152906001019060200180831161213e57829003601f168201915b505050505090806003015490806004018054612176906133cf565b80601f01602080910402602001604051908101604052809291908181526020018280546121a2906133cf565b80156121ef5780601f106121c4576101008083540402835291602001916121ef565b820191906000526020600020905b8154815290600101906020018083116121d257829003601f168201915b505050505090806005018054612204906133cf565b80601f0160208091040260200160405190810160405280929190818152602001828054612230906133cf565b801561227d5780601f106122525761010080835404028352916020019161227d565b820191906000526020600020905b81548152906001019060200180831161226057829003601f168201915b5050505050908060060160009054906101000a900460ff16908060070180546122a5906133cf565b80601f01602080910402602001604051908101604052809291908181526020018280546122d1906133cf565b801561231e5780601f106122f35761010080835404028352916020019161231e565b820191906000526020600020905b81548152906001019060200180831161230157829003601f168201915b5050505050908060080160009054906101000a900473ffffffffffffffffffffffffffffffffffffffff1690806009015490508a565b60066020528060005260406000206000915054906101000a900460ff1681565b61237c612662565b600073ffffffffffffffffffffffffffffffffffffffff168173ffffffffffffffffffffffffffffffffffffffff16036123ee5760006040517f1e4fbdf70000000000000000000000000000000000000000000000000000000081526004016123e59190613061565b60405180910390fd5b6123f7816126e9565b50565b600660003373ffffffffffffffffffffffffffffffffffffffff1673ffffffffffffffffffffffffffffffffffffffff16815260200190815260200160002060009054906101000a900460ff16612486576040517f08c379a000000000000000000000000000000000000000000000000000000000815260040161247d90613909565b60405180910390fd5b6000600281111561249a57612499612bf0565b5b6003600083815260200190815260200160002060060160009054906101000a900460ff1660028111156124d0576124cf612bf0565b5b14612510576040517f08c379a000000000000000000000000000000000000000000000000000000000815260040161250790613975565b60405180910390fd5b60016003600083815260200190815260200160002060060160006101000a81548160ff0219169083600281111561254a57612549612bf0565b5b02179055503373ffffffffffffffffffffffffffffffffffffffff16817f0c0a2ea1d1b01a28414c2003c2e13766007037e5965f76d1624f32b8c8db7028600360008581526020019081526020016000206002016040516125ab9190613b67565b60405180910390a350565b6125be612662565b80600890816125cd91906135ac565b50806040516125dc91906132db565b60405180910390207f20b00c400b45ef29a0319a48ba524832fd9a00108585f95562f1b7e8cc1a3bed60405160405180910390a250565b60026001540361264f576040517f3ee5aeb500000000000000000000000000000000000000000000000000000000815260040160405180910390fd5b6002600181905550565b60018081905550565b61266a6127ad565b73ffffffffffffffffffffffffffffffffffffffff166126886118ed565b73ffffffffffffffffffffffffffffffffffffffff16146126e7576126ab6127ad565b6040517f118cdaa70000000000000000000000000000000000000000000000000000000081526004016126de9190613061565b60405180910390fd5b565b60008060009054906101000a900473ffffffffffffffffffffffffffffffffffffffff169050816000806101000a81548173ffffffffffffffffffffffffffffffffffffffff021916908373ffffffffffffffffffffffffffffffffffffffff1602179055508173ffffffffffffffffffffffffffffffffffffffff168173ffffffffffffffffffffffffffffffffffffffff167f8be0079c531659141344cd1fd0a4f28419497f9722a3daafe3b4186f6b6457e060405160405180910390a35050565b600033905090565b604051806101400160405280600081526020016060815260200160608152602001600081526020016060815260200160608152602001600060028111156127ff576127fe612bf0565b5b815260200160608152602001600073ffffffffffffffffffffffffffffffffffffffff168152602001600081525090565b6000604051905090565b600080fd5b600080fd5b600080fd5b600080fd5b6000601f19601f8301169050919050565b7f4e487b7100000000000000000000000000000000000000000000000000000000600052604160045260246000fd5b6128978261284e565b810181811067ffffffffffffffff821117156128b6576128b561285f565b5b80604052505050565b60006128c9612830565b90506128d5828261288e565b919050565b600067ffffffffffffffff8211156128f5576128f461285f565b5b6128fe8261284e565b9050602081019050919050565b82818337600083830152505050565b600061292d612928846128da565b6128bf565b90508281526020810184848401111561294957612948612849565b5b61295484828561290b565b509392505050565b600082601f83011261297157612970612844565b5b813561298184826020860161291a565b91505092915050565b6000819050919050565b61299d8161298a565b81146129a857600080fd5b50565b6000813590506129ba81612994565b92915050565b600080600080600060a086880312156129dc576129db61283a565b5b600086013567ffffffffffffffff8111156129fa576129f961283f565b5b612a068882890161295c565b9550506020612a17888289016129ab565b945050604086013567ffffffffffffffff811115612a3857612a3761283f565b5b612a448882890161295c565b935050606086013567ffffffffffffffff811115612a6557612a6461283f565b5b612a718882890161295c565b925050608086013567ffffffffffffffff811115612a9257612a9161283f565b5b612a9e8882890161295c565b9150509295509295909350565b600073ffffffffffffffffffffffffffffffffffffffff82169050919050565b6000612ad682612aab565b9050919050565b612ae681612acb565b8114612af157600080fd5b50565b600081359050612b0381612add565b92915050565b600060208284031215612b1f57612b1e61283a565b5b6000612b2d84828501612af4565b91505092915050565b600081519050919050565b600082825260208201905092915050565b6000819050602082019050919050565b612b6b8161298a565b82525050565b600081519050919050565b600082825260208201905092915050565b60005b83811015612bab578082015181840152602081019050612b90565b60008484015250505050565b6000612bc282612b71565b612bcc8185612b7c565b9350612bdc818560208601612b8d565b612be58161284e565b840191505092915050565b7f4e487b7100000000000000000000000000000000000000000000000000000000600052602160045260246000fd5b60038110612c3057612c2f612bf0565b5b50565b6000819050612c4182612c1f565b919050565b6000612c5182612c33565b9050919050565b612c6181612c46565b82525050565b612c7081612acb565b82525050565b600061014083016000830151612c8f6000860182612b62565b5060208301518482036020860152612ca78282612bb7565b91505060408301518482036040860152612cc18282612bb7565b9150506060830151612cd66060860182612b62565b5060808301518482036080860152612cee8282612bb7565b91505060a083015184820360a0860152612d088282612bb7565b91505060c0830151612d1d60c0860182612c58565b5060e083015184820360e0860152612d358282612bb7565b915050610100830151612d4c610100860182612c67565b50610120830151612d61610120860182612b62565b508091505092915050565b6000612d788383612c76565b905092915050565b6000602082019050919050565b6000612d9882612b36565b612da28185612b41565b935083602082028501612db485612b52565b8060005b85811015612df05784840389528151612dd18582612d6c565b9450612ddc83612d80565b925060208a01995050600181019050612db8565b50829750879550505050505092915050565b60006020820190508181036000830152612e1c8184612d8d565b905092915050565b600060208284031215612e3a57612e3961283a565b5b6000612e48848285016129ab565b91505092915050565b6000819050919050565b612e6481612e51565b82525050565b6000602082019050612e7f6000830184612e5b565b92915050565b612e8e81612e51565b8114612e9957600080fd5b50565b600081359050612eab81612e85565b92915050565b600060208284031215612ec757612ec661283a565b5b6000612ed584828501612e9c565b91505092915050565b600061014083016000830151612ef76000860182612b62565b5060208301518482036020860152612f0f8282612bb7565b91505060408301518482036040860152612f298282612bb7565b9150506060830151612f3e6060860182612b62565b5060808301518482036080860152612f568282612bb7565b91505060a083015184820360a0860152612f708282612bb7565b91505060c0830151612f8560c0860182612c58565b5060e083015184820360e0860152612f9d8282612bb7565b915050610100830151612fb4610100860182612c67565b50610120830151612fc9610120860182612b62565b508091505092915050565b60006020820190508181036000830152612fee8184612ede565b905092915050565b6000806040838503121561300d5761300c61283a565b5b600061301b858286016129ab565b925050602083013567ffffffffffffffff81111561303c5761303b61283f565b5b6130488582860161295c565b9150509250929050565b61305b81612acb565b82525050565b60006020820190506130766000830184613052565b92915050565b600080604083850312156130935761309261283a565b5b60006130a185828601612af4565b92505060206130b2858286016129ab565b9150509250929050565b6130c58161298a565b82525050565b60006020820190506130e060008301846130bc565b92915050565b600082825260208201905092915050565b600061310282612b71565b61310c81856130e6565b935061311c818560208601612b8d565b6131258161284e565b840191505092915050565b6000602082019050818103600083015261314a81846130f7565b905092915050565b61315b81612c46565b82525050565b600061014082019050613177600083018d6130bc565b8181036020830152613189818c6130f7565b9050818103604083015261319d818b6130f7565b90506131ac606083018a6130bc565b81810360808301526131be81896130f7565b905081810360a08301526131d281886130f7565b90506131e160c0830187613152565b81810360e08301526131f381866130f7565b9050613203610100830185613052565b6132116101208301846130bc565b9b9a5050505050505050505050565b60008115159050919050565b61323581613220565b82525050565b6000602082019050613250600083018461322c565b92915050565b60006020828403121561326c5761326b61283a565b5b600082013567ffffffffffffffff81111561328a5761328961283f565b5b6132968482850161295c565b91505092915050565b600081905092915050565b60006132b582612b71565b6132bf818561329f565b93506132cf818560208601612b8d565b80840191505092915050565b60006132e782846132aa565b915081905092915050565b7f506c6f74206e756d62657220616c726561647920726567697374657265640000600082015250565b6000613328601e836130e6565b9150613333826132f2565b602082019050919050565b600060208201905081810360008301526133578161331b565b9050919050565b60008151905061336d81612994565b92915050565b6000602082840312156133895761338861283a565b5b60006133978482850161335e565b91505092915050565b7f4e487b7100000000000000000000000000000000000000000000000000000000600052602260045260246000fd5b600060028204905060018216806133e757607f821691505b6020821081036133fa576133f96133a0565b5b50919050565b60008190508160005260206000209050919050565b60006020601f8301049050919050565b600082821b905092915050565b6000600883026134627fffffffffffffffffffffffffffffffffffffffffffffffffffffffffffffffff82613425565b61346c8683613425565b95508019841693508086168417925050509392505050565b6000819050919050565b60006134a96134a461349f8461298a565b613484565b61298a565b9050919050565b6000819050919050565b6134c38361348e565b6134d76134cf826134b0565b848454613432565b825550505050565b600090565b6134ec6134df565b6134f78184846134ba565b505050565b5b8181101561351b576135106000826134e4565b6001810190506134fd565b5050565b601f8211156135605761353181613400565b61353a84613415565b81016020851015613549578190505b61355d61355585613415565b8301826134fc565b50505b505050565b600082821c905092915050565b600061358360001984600802613565565b1980831691505092915050565b600061359c8383613572565b9150826002028217905092915050565b6135b582612b71565b67ffffffffffffffff8111156135ce576135cd61285f565b5b6135d882546133cf565b6135e382828561351f565b600060209050601f8311600181146136165760008415613604578287015190505b61360e8582613590565b865550613676565b601f19841661362486613400565b60005b8281101561364c57848901518255600182019150602085019450602081019050613627565b868310156136695784890151613665601f891682613572565b8355505b6001600288020188555050505b505050505050565b7f4e487b7100000000000000000000000000000000000000000000000000000000600052603260045260246000fd5b7f4e6f7420746865206c616e646f776e6572000000000000000000000000000000600082015250565b60006136e36011836130e6565b91506136ee826136ad565b602082019050919050565b60006020820190508181036000830152613712816136d6565b9050919050565b7f4c616e64206d75737420626520617070726f7665640000000000000000000000600082015250565b600061374f6015836130e6565b915061375a82613719565b602082019050919050565b6000602082019050818103600083015261377e81613742565b9050919050565b6000819050919050565b6137a061379b8261298a565b613785565b82525050565b60008160601b9050919050565b60006137be826137a6565b9050919050565b60006137d0826137b3565b9050919050565b6137e86137e382612acb565b6137c5565b82525050565b60006137fa828661378f565b60208201915061380a828561378f565b60208201915061381a82846137d7565b601482019150819050949350505050565b7f496e76616c6964206f72206e6f6e2d6578697374656e742070726f6f66000000600082015250565b6000613861601d836130e6565b915061386c8261382b565b602082019050919050565b6000602082019050818103600083015261389081613854565b9050919050565b7f4e6f7420616e20617574686f72697a656420676f7665726e6d656e74206f666660008201527f696369616c000000000000000000000000000000000000000000000000000000602082015250565b60006138f36025836130e6565b91506138fe82613897565b604082019050919050565b60006020820190508181036000830152613922816138e6565b9050919050565b7f4c616e64207265636f7264206973206e6f742070656e64696e67000000000000600082015250565b600061395f601a836130e6565b915061396a82613929565b602082019050919050565b6000602082019050818103600083015261398e81613952565b9050919050565b600081546139a2816133cf565b6139ac81866130e6565b945060018216600081146139c757600181146139dd57613a10565b60ff198316865281151560200286019350613a10565b6139e685613400565b60005b83811015613a08578154818901526001820191506020810190506139e9565b808801955050505b50505092915050565b60006040820190508181036000830152613a338185613995565b90508181036020830152613a4781846130f7565b90509392505050565b7f496e76616c6964206f7220616c726561647920757365642070726f6f66000000600082015250565b6000613a86601d836130e6565b9150613a9182613a50565b602082019050919050565b60006020820190508181036000830152613ab581613a79565b9050919050565b7f4e487b7100000000000000000000000000000000000000000000000000000000600052601160045260246000fd5b6000613af68261298a565b9150613b018361298a565b9250828203905081811115613b1957613b18613abc565b5b92915050565b6000613b2a8261298a565b91507fffffffffffffffffffffffffffffffffffffffffffffffffffffffffffffffff8203613b5c57613b5b613abc565b5b600182019050919050565b60006020820190508181036000830152613b818184613995565b90509291505056fea2646970667358221220117f180351b44f73fd92f7d49fb008d7bc603eddbdd3e7f4bf07aac4c8ac3fa464736f6c634300081c00336080604052348015600f57600080fd5b5060008081905550610279806100266000396000f3fe608060405234801561001057600080fd5b50600436106100415760003560e01c80632baeceb7146100465780639fa6a6e314610050578063d09de08a1461006e575b600080fd5b61004e610078565b005b6100586100d7565b6040516100659190610114565b60405180910390f35b6100766100e0565b005b60008054116100bc576040517f08c379a00000000000000000000000000000000000000000000000000000000081526004016100b39061018c565b60405180910390fd5b60016000808282546100ce91906101db565b92505081905550565b60008054905090565b60016000808282546100f2919061020f565b92505081905550565b6000819050919050565b61010e816100fb565b82525050565b60006020820190506101296000830184610105565b92915050565b600082825260208201905092915050565b7f436f756e7465723a2064656372656d656e74206f766572666c6f770000000000600082015250565b6000610176601b8361012f565b915061018182610140565b602082019050919050565b600060208201905081810360008301526101a581610169565b9050919050565b7f4e487b7100000000000000000000000000000000000000000000000000000000600052601160045260246000fd5b60006101e6826100fb565b91506101f1836100fb565b9250828203905081811115610209576102086101ac565b5b92915050565b600061021a826100fb565b9150610225836100fb565b925082820190508082111561023d5761023c6101ac565b5b9291505056fea26469706673582212202fb0f72abe038dea731199639be090ff641168453b7ccb5225d1854e95a5526a64736f6c634300081c0033",
  "linkReferences": {},
  "deployedLinkReferences": {}
}